:020000040800F2
:1000000040DC0020390300085D9800086574000892
:10001000599800084F1A000885B700080000000032
:10002000000000000000000000000000790200084D
:100030003D31000800000000D5020008C5A60008F8
:100040005303000853030008530300085303000838
:1000500053030008530300083F310008530300080E
:1000600053030008493100085331000853030008C6
:100070005303000853030008530300085303000808
:1000800053030008530300085303000853030008F8
:10009000551A000853030008530300085D31000897
:1000A00053030008530300085303000853030008D8
:1000B00053030008530300085303000853030008C8
:1000C00053030008530300085303000853030008B8
:1000D0005303000871AE00085303000881AE000806
:1000E0005303000853030008530300085303000898
:1000F000530300085303000853030008892D000828
:100100005303000853030008530300085303000877
:100110005303000853030008530300085303000867
:1001200053030008052E000853030008530300087A
:100130005303000853030008530300085303000847
:10014000651A00085303000853030008C19800080B
:10015000152E0008252E0008352E0008B1AF000826
:100160005303000853030008530300085303000817
:100170005303000853030008530300080000000065
:10018000530300085303000800F002F800F064F87D
:100190000AA090E8000C82448344AAF10107DA45E2
:1001A00001D100F059F8AFF2090EBAE80F0013F0D0
:1001B000010F18BFFB1A43F00103184760620100EA
:1001C0008062010010F8013B0A4413F0030408BFE9
:1001D00010F8014B1D1108BF10F8015B641E05D01B
:1001E00010F8016B641E01F8016BF9D1002D15D0D8
:1001F00010F8014B03F00C030C2BA1EB04040ABF15
:1002000010F8013BA4EB8314A4EB032405F10103D4
:1002100014F8016B5B1E01F8016BF9D5914238BFF0
:1002200010F8013BD1D3704700230024002500269D
:10023000103A28BF78C1FBD8520728BF30C148BF49
:100240000B6070471FB514F0EEFF9DE8030000F04F
:10025000FFFF1FBD10B510BD01F07EF81146FFF77E
:10026000F1FF0FF0C1FA01F09CF803B4FFF7F2FFC1
:1002700003BC01F0D3F800002C4B19680868B0E803
:10028000F04F80F30988BFF36F8F4FF0000080F3C9
:10029000118870470000000008480068006880F37B
:1002A00008884FF0000080F3148862B661B6BFF38F
:1002B0004F8FBFF36F8F00DF00BF00BF08ED00E07E
:1002C000DFF80C00016841F470010160704700BF65
:1002D00088ED00E0EFF30980BFF36F8F134B1A68CE
:1002E0001EF0100F08BF20ED108A20E9F04F1060BB
:1002F00009B44FF0500080F31188BFF34F8FBFF364
:100300006F8F12F097FE4FF0000080F3118809BC48
:1003100019680868B0E8F04F1EF0100F08BFB0EC85
:10032000108A80F30988BFF36F8F70475C05002047
:10033000EFF30580704700000948804709480047EF
:10034000FEE7FEE7FEE7FEE7FEE7FEE7FEE7FEE785
:10035000FEE7FEE704480549054A064B70470000E2
:100360008DA7000889010008409C002040DC002087
:1003700040BC002040BC00209FED1A1AF5EE000A98
:1003800040EE010ABDEEE00AF5EEC00A10EE100ADA
:10039000F1EE10FA38BF401E00EE100A1349F7EED6
:1003A000001AB8EEC00A30EEC00ADFED0F0A20EEE8
:1003B000200AFCEEC00A10EE900AC0F3080000EE1E
:1003C000900A01EB8000F8EE600A90ED011A70EEE1
:1003D000600A90ED000A71EEE01A21EE800A00EE4C
:1003E000810A704783F9223E00000044A45B0108A3
:1003F000DFED190AB5EEC00A60EE200ABDEEE01A84
:1004000011EE100AF1EE10FA38BF401E00EE100A8D
:100410001349F7EE001AB8EEC00A30EEC00ADFED5D
:100420000F0A60EE200ABCEEE00A10EE100AC0F3DC
:10043000080000EE100A01EB8000B8EE400A90EDD3
:10044000011A70EEC00A90ED000A71EEE01A21EE7A
:10045000800A00EE810A704783F9223E00000044C2
:10046000A45B010870B405880E884468D1F804C004
:100470005368B54208D140884988884201BF118835
:100480008D425188884203D070BC6FF002007047E3
:1004900005FB00F1880827D094ED001ADCED000A76
:1004A00094ED010ADCED011A31EE201AD4ED020AB6
:1004B00070EE211A9CED020A83ED001AC3ED011AB9
:1004C00094ED031ADCED031A30EE800A401E71EE43
:1004D000210A83ED020A04F11004C3ED030A03F1BB
:1004E00010030CF1100CD7D111F0030030D0B0F193
:1004F000004F30D200282BDD211F1B1FACF104025E
:1005000010F0010F0AD091ED010AD2ED010A091D88
:10051000121D30EE200A83ED010A1B1D400817D082
:1005200091ED010AD2ED010A401E30EE200A83ED62
:10053000010A91ED020AD2ED020A01F1080102F16D
:10054000080230EE200A83ED020A03F10803E7D126
:1005500070BC00207047B4EC010A401EFCEC010A9C
:1005600030EE200AA3EC010AF5D1F1E701804280C8
:10057000436070472DE9F34F84B0049840680090C1
:10058000486801900498B0F800E04588DFEDFE0A65
:1005900000200290B0EE600AAE4506D10888498876
:1005A000884204BF7146864504D06FF0020006B051
:1005B000BDE8F08F01985FEA010C18BFB7EE001A92
:1005C0003DD000BFBEEB0C0117D0B1F1004F80F061
:1005D0001F82002911DD021F11F0010F1CBFC2EDA7
:1005E000010A121D4B1006D0C2ED010AC2ED020A2B
:1005F00008325B1EF8D100EB8100BCF10102A0ECD7
:10060000011A19D0B2F1004F80F00882002A13DDE0
:10061000031F12F0010F1CBFC3ED010A1B1D511077
:1006200008D000BFC3ED010AC3ED020A491E03F161
:100630000803F7D100EB8200BCF1010CC2D14FF0EE
:1006400000080395002D14BFB0EE602A002000F0D2
:10065000BF8100BF009908FB05F001EB800B0199F9
:10066000DBED002A01EB80000346F0EE421AC6459E
:1006700052D9AEEB0802ABEB850112F0010F17D097
:1006800001EB850191ED000AB5EEC00AF1EE10FA1A
:1006900007DDB4EEE10AF1EE10FA09DDF0EE401AE2
:1006A00006E0B1EE400AF4EEC01AF1EE10FAF5D30E
:1006B000521031D001EB850C9CED000AB5EEC00A5A
:1006C000F1EE10FA05DDB4EEE10AF1EE10FA09DD03
:1006D00006E0B1EE400AF4EEC01AF1EE10FA01D2D3
:1006E000F0EE401A01EBC50191ED000AB5EEC00A2B
:1006F000F1EE10FA05DDB4EEE10AF1EE10FA09DDD3
:1007000006E0B1EE400AF4EEC01AF1EE10FA01D2A2
:10071000F0EE401A521ECDD1F5EEC01AF1EE10FAED
:1007200000F07381F5EEC02A0126F1EE10FA00996F
:10073000D4BFB1EE620AB0EE620AB4EE610AF1EE25
:1007400010FA1CBFAEEB0802B2F1010C47D005FB5A
:1007500008F201EB820292ED001A00BFB0EE410AEE
:1007600005FB06F4B5EEC00A00EB8404F1EE10FAC6
:10077000CCBFF0EE400AF1EE400AF4EE610AF1EE71
:1007800010FA28D1B5EB080C11D0BCF1004F7DD286
:10079000BCF1000F0BDD00BF92ED000AD1ED000AA5
:1007A000BCF1010CE2EC010AA1EC010AF4D1290030
:1007B0000ED0B1F1004F6AD2002909DD94ED000A94
:1007C000D0ED000A491EE4EC010AA0EC010AF5D1C3
:1007D000012002900BE0761CBCF1010CBED1029806
:1007E000012804D0F5EEC02AF1EE10FA7ED09BED80
:1007F000000AB5EB08009A465946064622D0B0F1E9
:10080000004F74D200281DDD091F10F0010F06D023
:10081000F0EE400A80EEA01A81ED011A091D401089
:1008200010D000BFD1ED010A401E80EE801A81ED8C
:10083000011A91ED021AC1EE000AC1ED020A01F19E
:100840000801EFD1280026D0B0F1004F7ED2002859
:1008500021DDAAF1040110F0010F06D0D1ED010A4B
:1008600080EE801A81ED011A091D401013D000BFDF
:10087000D1ED010A401E80EE801A81ED011AD1ED02
:10088000020A80EE801A81ED021A01E0CBE0D6E088
:1008900001F10801ECD1DDE900124FF000095FEA37
:1008A0000E0773D0C14504BF01EB860102EB850240
:1008B00074D091ED000ADC465046330035D01C461A
:1008C000B6F1004F7ED2002C2FDD0B1FABF1040CD4
:1008D00016F0010F0FD0F0EE400ADCED011AB0EE79
:1008E000601A00EEE11A83ED011A01E08DE0B1E03B
:1008F0001B1D0CF1040C741015D000BFD3ED010AC0
:100900009CED011A40EE410AC3ED010AD3ED020A43
:100910009CED021A0CF1080C40EE410AC3ED020AEC
:100920000833641EEAD101EB86012B0036D0B3F107
:10093000004F72D2002B31DDA2F1040CAAF10400A9
:1009400013F0010F0CD0DCED010A00E08BE090ED1C
:10095000011A001D40EE410ACCED010A0CF1040C15
:100960005C1019D0DCED010A90ED011A40EE410A4D
:10097000CCED010ADCED020A90ED021A083040EEDF
:10098000410ACCED020A03E0000000000DE005E0A2
:10099000641E0CF1080CE5D102EB830201EB880127
:1009A0007F1E09F101097FF47DAF009808F101086D
:1009B000001D00900398401E03907FF44BAE0299F7
:1009C000012900E058E004BF06B0BDE8F08F00BF89
:1009D000B5EEC00AF1EE10FA7FF4E9AD04990EFB12
:1009E00005F3002B4A684FF000010BD902EB810C94
:1009F0009CED000AB5EEC00AF1EE10FA02D1491CD6
:100A00008B42F3D88B427FF4D2AD6FF00400CEE579
:100A1000E0EC010A491EFBD1EFE538E0E0EC010A09
:100A2000521EFBD108E692ED000AD1ED000ABCF19E
:100A3000010CE2EC010AA1EC010AF4D1B7E694ED55
:100A4000000AD0ED000A491EE4EC010AA0EC010AFC
:100A5000F5D1BDE6D1ED000A401E80EE801AA1EC72
:100A6000011AF7D1EEE6D3ED000A401E80EE801A9F
:100A7000A3EC011AF7D10EE7BCEC011AD1ED000A84
:100A80005B1E40EE410AE1EC010AF5D14DE7B0EC06
:100A9000011AD2ED000A5B1E40EE410AE2EC010AA7
:100AA000F5D17BE72DE9F04F82B04668536801939A
:100AB000058847884B88002000900888874201BF3E
:100AC000B2F800C06545528893421EBF6FF0020025
:100AD00002B0BDE8F08F9FED412A4FEA970EC7F3B1
:100AE000400B00BFDDE9000202EB800A4A6898462D
:100AF0004FF00009B0EE420AB4465FEA0E0025D07E
:100B000092ED001ADCED001A02EB8302DCED010A23
:100B100001EE810A92ED001A02EB8302401ED2ED33
:100B2000001A02EB830200EE810A9CED021ADCED52
:100B3000030A00040CF1100C000C01EE210A92EDE6
:100B4000001A02EB830200EE810AD9D117F00300EC
:100B500026D0ACF10404A2EB830210F0010F08D000
:100B600002EB8302D4ED010A92ED001A241D00EE7F
:100B7000810A5FEA0B0013D002EB830CD4ED010A6B
:100B80009CED001A02EBC302401E00EE810AD4ED78
:100B9000020A92ED001A04F1080400EE810AEBD17A
:100BA00009F10100AAEC010A1FFA80F9486800EB7C
:100BB0008902A8F101001FFA80F8B8F1000F99D15D
:100BC000009806EB8706184480B20090681E050462
:100BD0002D0C87D102B00020BDE8F08F000000008E
:100BE00070B405880E884468D1F804C05368B542D3
:100BF00008D140884988884201BF11888D425188B8
:100C0000884203D070BC6FF00200704705FB00F112
:100C1000880827D094ED001ADCED000A94ED010A53
:100C2000DCED011A31EE601AD4ED020A70EE611AA1
:100C30009CED020A83ED001AC3ED011A94ED031A2C
:100C4000DCED031A30EEC00A401E71EE610A83ED3E
:100C5000020A04F11004C3ED030A03F110030CF1BE
:100C6000100CD7D111F0030030D0B0F1004F30D2CA
:100C700000282BDD211F1B1FACF1040210F0010F17
:100C80000AD091ED010AD2ED010A091D121D30EEC4
:100C9000600A83ED010A1B1D400817D091ED010A7F
:100CA000D2ED010A401E30EE600A83ED010A91ED9B
:100CB000020AD2ED020A01F1080102F1080230EE47
:100CC000600A83ED020A03F10803E7D170BC00203B
:100CD0007047B4EC010A401EFCEC010A30EE600AD9
:100CE000A3EC010AF5D1F1E72DE9F04F028847683E
:100CF000B0F802804888D1F8049082B04FF0000A22
:100D00001646824207BF098888456FF0020002B08C
:100D100018BFBDE8F08F4FEA980B02EB420001903C
:100D2000C8F34000CDF8000009EB8A01BBF1000FC9
:100D300033D0019801EB820C01EB80043B46E64680
:100D400001EBC2054FEA0B0093ED000A401E81ED56
:100D5000000A93ED010A01EB02118CED000A93EDFC
:100D6000020A0CEB021C85ED000A93ED030A05EB69
:100D7000021584ED000A04EB021403F11003E3D121
:100D80000EEB820000EB820000EB8201ABF1010070
:100D9000504307EB0B1701EB001118F0030C21D0A7
:100DA0003B1FA1EB82011CF0010F06D093ED010A5D
:100DB00001EB82011B1D81ED000A009880B100BF8C
:100DC00093ED010A01EB820401EBC20184ED000AFC
:100DD00093ED020A401E81ED000A03F10803EFD1F2
:100DE00007EB8C070AF101001FFA80FA701E060457
:100DF000360C99D102B00020BDE8F08F70B50646E0
:100E000000F00AFA056806F10B0020F00704B4426E
:100E10009CBF002070BD2B466A68BAB11068A04222
:100E200010D304F1080188423CBF5068586007D3D2
:100E30005168101941601168091B01605860146005
:100E4000101D70BD13465268002AE7D1214628467E
:100E500000F0EAF90028DED170BD70B50446051F28
:100E600000F0DAF90068002C14BF446870BD002C53
:100E700018BFAC423CBF20466468F8D301680A182A
:100E8000AA4218BF456003D12A6805461144016093
:100E900028684119A1421CBF6C6070BD616869601F
:100EA00021680844286070BD53EA020C00F0698094
:100EB0002DE9F04B4FF00006002B1FBFB3FA83F56E
:100EC00003FA05F424FA05F65E4012BF1643B2FA9F
:100ED00082F502FA05F4C5F120051EBF22FA05FCD1
:100EE00044EA0C04203556EA044C4FEA144418BF77
:100EF000641C4FF000084FF00009904271EB030CA6
:100F000039D3002919BFB1FA81F701FA07F6B0FA0F
:100F100080F700FA07F6C7F120071EBF20FA07FC8A
:100F200046EA0C062037B6FBF4FCA7EB0507103F9A
:100F300007F01F0BCBF120060CFA0BFB2CFA06F680
:100F400044BFB3460026202FA4BF5E464FF0000BDF
:100F50005BEA060C08BF4FF0010B19EB0B09ABFB6A
:100F6000027C48EB0608C01B06FB02CC0BFB03CC43
:100F700071EB0C01C1E70B46024641464846BDE80D
:100F8000F08B13B54FF000004FF00001AFF300807D
:100F9000BDE81C40704740EA010310B59B070FD124
:100FA000042A0DD310C808C9121F9C42F8D020BAD9
:100FB00019BA884201D9012010BD4FF0FF3010BD91
:100FC0001AB1D30703D0521C07E0002010BD10F85F
:100FD000013B11F8014B1B1B07D110F8013B11F825
:100FE000014B1B1B01D1921EF1D1184610BD10B54B
:100FF000431C02E010F8011B71B18107FAD14FF0D8
:10100000013202C88C1A8C4314EAC211F9D0C01AFA
:101010000A0603D0C01E10BDC01A10BD0A0401D0BC
:10102000801E10BD0902FCD0401E10BD032A40F2F4
:10103000308010F0030C00F0158011F8013BBCF17A
:10104000020F624498BF11F801CB00F8013B38BF92
:1010500011F8013BA2F1040298BF00F801CB38BFA0
:1010600000F8013B11F0030300F02580083AC0F0BE
:10107000088051F8043B083A51F804CBA0E8081066
:10108000F5E7121D5CBF51F8043B40F8043BAFF399
:101090000080D20724BF11F8013B11F801CB48BFF3
:1010A00011F8012B24BF00F8013B00F801CB48BF29
:1010B00000F8012B704710B5203AC0F00B80B1E862
:1010C0001850203AA0E81850B1E81850A0E818507D
:1010D000BFF4F5AF5FEA027C24BFB1E81850A0E886
:1010E000185044BF18C918C0BDE810405FEA827CA0
:1010F00024BF51F8043B40F8043B08BF7047D207B7
:1011000028BF31F8023B48BF11F8012B28BF20F857
:10111000023B48BF00F8012B704702F0FF0343EA8F
:10112000032242EA024200F002B84FF00002042912
:10113000C0F0128010F0030C00F01B80CCF1040C06
:10114000BCF1020F18BF00F8012BA8BF20F8022B3A
:10115000A1EB0C0100F00DB85FEAC17C24BF00F8E0
:10116000012B00F8012B48BF00F8012B70474FF00E
:10117000000200B5134694469646203922BFA0E8E7
:101180000C50A0E80C50B1F12001BFF4F7AF0907F3
:1011900028BFA0E80C5048BF0CC05DF804EB8900E4
:1011A00028BF40F8042B08BF704748BF20F8022B27
:1011B00011F0804F18BF00F8012B704710B504469E
:1011C00010F0030F08BF11F0030F40F015804FF02F
:1011D000013E121FC0F20E8051F8043BA3EB0E0C2F
:1011E0002CEA030C1CEACE1C08BF40F8043BF0D0EC
:1011F000A1F1040102F10402521E08DB11F8013BC7
:10120000002B00F8013BF7D11146FFF78EFF204677
:1012100010BD70477047704700487047E89B00203A
:10122000704770477047704738B504460A4600203B
:101230006946AFF30080002808BF38BD0246009918
:10124000204600F04FF8012038BD012000F07CB8A6
:10125000F8B5AFF30080054600200C46102000BF13
:101260000646A819A0420DD9324669460020AFF3C0
:101270000080070008BF00F067F80098A04218BF80
:101280000546C419FFF7C8FF05600746F01D20F0AA
:1012900007004619284600F00AF8B44208BFF8BD16
:1012A000A21B31463868BDE8F84000F01BB80021A9
:1012B0000160C0E9011070471020704710B500F0C0
:1012C0000DF8006810BD10B5044600F007F8046082
:1012D00010BD000000487047E09B002000487047A8
:1012E000E09B0020034640688C46002818BF8842D7
:1012F0003CBF03464068F8D318681844884207D0BA
:101300000CF1030020F00700001D411A521A01469B
:10131000081D0A60FFF7A1BD1FB584B000200A9C1C
:1013200006AB04AA02A90094AFF3008018B1DDE96E
:10133000020108B010BD0348204000F040F8002032
:101340000146F6E70000207C10B500F03FF8BDE84C
:10135000104000F02FB870477546FFF7BBFFAE4650
:1013600005006946534620F00700854618B020B5B1
:10137000FEF7F0FFBDE820404FF000064FF00007F9
:101380004FF000084FF0000B21F00701AC46ACE82D
:10139000C009ACE8C009ACE8C009ACE8C0098D469A
:1013A000704710B50446AFF300802046BDE81040FA
:1013B000FEF75BBF002801D000F030B8704710B5D1
:1013C00000F04CF8BDE81040FFF7F4BF10B501285D
:1013D00005D0002103A000F027F8012010BD09A1CD
:1013E000F8E7000053494752544D454D3A204F7598
:1013F00074206F662068656170206D656D6F72790D
:10140000000000003A2048656170206D656D6F72C4
:101410007920636F727275707465640001491820D9
:10142000ABBEFEE72600020070B505460C460A205A
:1014300000E06D1C00F068F835B128780028F8D17C
:1014400002E0641C00F060F814B120780028F8D1A4
:10145000BDE870400A2000F057B8000010B502281F
:1014600003D0410103D50DA112E0002010BD010100
:1014700001D50FA10CE0C10001D511A108E0810048
:1014800001D512A104E0400001D513A100E0002124
:1014900015A0FFF7C9FF012010BD0000496E76615D
:1014A0006C6964204F7065726174696F6E00000032
:1014B000446976696465204279205A65726F00003C
:1014C0004F766572666C6F7700000000556E64653C
:1014D00072666C6F77000000496E657861637420F6
:1014E000526573756C7400005349474650453A2065
:1014F00041726974686D65746963206578636570AD
:1015000074696F6E3A20000008B569468DF80000D6
:101510000320ABBE08BD000010B501221021024817
:1015200003F08CF810BD00000000024010B500224E
:101530001021024803F082F810BD000000000240B4
:1015400010B501221146024803F078F810BD0000E2
:101550000004024010B500220121024803F06EF899
:1015600010BD00000004024010B50446FFF7DEFF86
:10157000922000F0A3F906229549122000F07EF98E
:10158000FFF7CAFF92484078000200B290490978FC
:101590000843904908800846B0F9000000EE100AA0
:1015A000B8EEC00A8C48D0ED000A20EE200AD4ED37
:1015B000080A20EE200A84ED000A8548C07800025F
:1015C00000B2834989780843824908800846B0F907
:1015D000000000EE100AB8EEC00A7F48D0ED000A05
:1015E00020EE200AD4ED080A20EE200A84ED010A3C
:1015F00077484079000200B2754909790843754976
:1016000008800846B0F9000000EE100AB8EEC00AE3
:101610007148D0ED000A20EE200AD4ED080A20EE31
:10162000200A84ED020AFFF795FF0822684900208E
:1016300000F024F9FFF784FF654800780F284FD1A8
:1016400066480078F0B36248C078000200B2604992
:10165000897808435F49088094ED090A0846B0F983
:10166000000000EE900AF8EEE00A5D4890ED001AE6
:1016700010EE810A84ED030A55484079000200B259
:101680005349097908435349088094ED0A0A0846EA
:10169000B0F9000000EE900AF8EEE00A504890ED34
:1016A000001A10EE810A84ED040A4948C07900024C
:1016B00000B24749897908434649088094ED0B0AEE
:1016C000084600E00DE0B0F9000000EE900AF8EEE8
:1016D000E00A434890ED001A10EE810A84ED050AF5
:1016E00044E03B48C078000200B239498978084399
:1016F000384908800846B0F9000000EE100AB8EE3C
:10170000C00A3748D0ED000A20EE200A84ED030A13
:101710002F484079000200B22D49097908432D492C
:1017200008800846B0F9000000EE100AB8EEC00AC2
:101730002B48D0ED000A20EE200A84ED040A24484C
:10174000C079000200B22249897908432149088002
:101750000846B0F9000000EE100AB8EEC00A2048B2
:10176000D0ED000A20EE200A84ED050AFFF7DEFE28
:10177000A22000F0A3F802221549222000F07EF8F2
:10178000FFF7CAFE12480078C0001149497840EAC4
:101790006110104908800846B0F90000B0F5806F6C
:1017A00005DB08460088A0F5006000B20880094803
:1017B000B0F9000000EE100AF8EEC00AB4EE001A0C
:1017C000B3EE070A00EE810A84ED070A10BD00009F
:1017D0001E04002026040020E0030020F003002067
:1017E000E403002070B504460D461C480460002048
:1017F0001B4908700BF01EFA19490978084318496B
:1018000008700BF0CDFA164909780843144908709E
:101810001DB1144800F078F91CE09FED130A11483F
:1018200080ED090A9FED110A80ED0A0A9FED0F0A6B
:1018300080ED0B0A9FED0E0A80ED0C0A90ED0C0A6C
:10184000DFED0C0A80EE801A80ED081A9FED0A0A7F
:1018500080ED060A0248007870BD000028040020D0
:10186000EA030020C0340020AC38223BB016CE3949
:101870003F161B41C3F51C410000204270B50646CF
:101880000C46154646F0800000F018F806E055209A
:1018900000F014F82070641C681EC5B2002DF6D14B
:1018A00070BD70B504460D4644F0800000F006F8A7
:1018B000552000F003F8287070BD000001B582B01B
:1018C0004FF47A70012301AA02A90090034800682E
:1018D00004F00EFB9DF804000EBD0000280400205B
:1018E00070B505460C462846FFF7E8FF2046FFF78F
:1018F000E5FF70BDD2ED020A92ED021AB6EE000AC3
:1019000000EEC10AD2ED030A92ED031A00EEC10AFD
:10191000D0ED000A20EE200AD2ED010A92ED021A63
:1019200060EE810A92ED001AD2ED031A41EE610ACF
:1019300090ED011A00EE810AD2ED010A92ED031A30
:1019400060EE810A92ED001AD2ED021A41EE210AF0
:1019500090ED021A00EE810AF0EE000A20EE200A55
:1019600081ED000A92ED010AD2ED020A20EE200A72
:10197000D2ED000A92ED031A00EE810AD0ED000AC2
:1019800060EE200A92ED011AD2ED011AB6EE000ABD
:1019900001EE610AD2ED031A92ED032AB0EE401A6D
:1019A00001EEC21AD0ED011AB0EE600A01EE210A72
:1019B000D2ED020A92ED031A60EE810A92ED001A4E
:1019C000D2ED011A41EE610A90ED021A00EE810A91
:1019D000F0EE000A20EE200A81ED010A92ED010AE4
:1019E000D2ED030A20EE200AD2ED000A92ED021A8F
:1019F00000EEC10AD0ED000A20EE200AD2ED020A64
:101A000092ED031A60EE810A92ED001AD2ED011AEE
:101A100041EE210A90ED011A00EE810A92ED011AC1
:101A2000D2ED011AF6EE000A41EE610A92ED021AB9
:101A3000D2ED021A41EE610A90ED021A00EE810A1F
:101A4000F0EE000A20EE200A81ED020A704700BF86
:101A5000FEE7000010B5024801F00DFE10BD0000C9
:101A6000840C002010B5024801F005FE10BD0000F6
:101A7000AC0C002038B504464FF4007008490860EB
:101A800000208860C86008200861200A05490870A5
:101A90004C706B460A460249034801F024FC38BDED
:101AA000681A00208A000020840C0020F8B5074640
:101AB0000C4615461E4640F2FF100D4908600020F6
:101AC0008860C86008200861380A0A4908704F70A9
:101AD000200A8870CC70280A08714D71300A88710C
:101AE000CE716B460A460249034801F0FCFBF8BD83
:101AF000501A002082000020AC0C0020082A01D1DE
:101B00000B7803707047000070B52DED048B88B022
:101B1000044600200690079001F04AFAFE4880ED46
:101B2000000A00BF01F044FAFB48D0ED000A30EE95
:101B3000600AF2EE040AB4EEE00AF1EE10FA14DDE7
:101B40009FEDF60A84ED090A9FEDF50A84ED0A0A75
:101B50009FEDF30A84ED0B0A9FEDF20A84ED0C0A67
:101B60009FEDF10A84ED060A55E29FEDF00A01F0BF
:101B7000DBF99FEDEF0A84ED0C0A9FEDED0A84ED91
:101B8000090A9FEDEB0A84ED0A0A9FEDE90A84ED4C
:101B90000B0A002673E1FFF7C9FC9220FFF78EFEC7
:101BA000062206A91220FFF769FEFFF7B5FC9DF893
:101BB0001900000200B29DF8181040EA010500EE7D
:101BC000105AB8EEC00ADB48D0ED000A20EE200A19
:101BD00084ED000A9DF81B00000200B29DF81A1067
:101BE00040EA010500EE105AB8EEC00AD148D0ED27
:101BF000000A20EE200A84ED010A9DF81D00000273
:101C000000B29DF81C1040EA010500EE105AB8EE33
:101C1000C00AC848D0ED000A20EE200A84ED020A6E
:101C2000D4ED000A60EEA00A94ED011AD4ED011A79
:101C300041EE210A94ED021AD4ED021A41EE210A76
:101C4000B0EE600A0AF0EBFEB0EE408A94ED0C0AAA
:101C500030EE080A84ED0C0AFFF77CFC082206A986
:101C60000020FFF70BFEFFF76BFC9DF818000F2814
:101C700050D19DF81B00000200B29DF81A1040EAF6
:101C8000010500EE105AB8EEC00AAB48D0ED000ACC
:101C900020EE200A84ED030A94ED090AD4ED030A2C
:101CA00030EE200A84ED090A9DF81D00000200B202
:101CB0009DF81C1040EA010500EE105AB8EEC00A6B
:101CC0009D48D0ED000A20EE200A84ED040A94ED30
:101CD0000A0AD4ED040A30EE200A84ED0A0A9DF8BF
:101CE0001F00000200B29DF81E1040EA010500EE40
:101CF000105AB8EEC00A9048D0ED000A20EE200A33
:101D000084ED050A94ED0B0AD4ED050A30EE200AA5
:101D100084ED0B0A06BBF0EE488AB0EE489A00202C
:101D200017E004F10C0101EB800191ED000A03A919
:101D300001EB800181ED000A04F10C0101EB80014F
:101D400091ED000A694601EB800181ED000A411C1A
:101D5000C8B20328E5DB49E0B4EEE88AF1EE10FAF8
:101D600001DDF0EE488AB4EEC98AF1EE10FA01D234
:101D7000B0EE489A002037E004F10C0101EB80013D
:101D800091ED000A03A901EB8001D1ED000AB4EE48
:101D9000E00AF1EE10FA0ADD04F10C0101EB80011A
:101DA00091ED000A03A901EB800181ED000A04F125
:101DB0000C0101EB800191ED000A694601EB800105
:101DC000D1ED000AB4EEE00AF1EE10FA0AD204F105
:101DD0000C0101EB800191ED000A694601EB8001E5
:101DE00081ED000A411CC8B20328C5DB38EEC90AE0
:101DF000524880ED000A002012E003A901EB8001A7
:101E000091ED000A694601EB8001D1ED000A30EE48
:101E1000600A4B4901EB800181ED000A411CC8B208
:101E20000328EADB454890ED000AF6EE000AB4EE1E
:101E3000E00AF1EE10FA1BDC414890ED000ADFEDFC
:101E4000410AB4EEE00AF1EE10FA11DC90ED010A5D
:101E5000DFED3C0AB4EEE00AF1EE10FA08DC90ED9A
:101E6000020ADFED380AB4EEE00AF1EE10FA00DD06
:101E70000AE09FED350A01F057F8701C86B233482E
:101E800000888642FFF687AE00BFD4ED0C0A2F48CB
:101E9000008800EE100AB8EE400A80EE801A84ED49
:101EA0000C1A002015E004F1240101EB8001D1EDB2
:101EB000000A2649098800EE101AB8EE400A80EEA2
:101EC000801A04F1240101EB800181ED001A411C0C
:101ED000C8B20328E7DBFFF729FBA220FFF7EEFCDF
:101EE000022206A92220FFF7C9FCFFF715FB9DF887
:101EF0001800C0009DF8191040EA6115B5F5806F13
:101F000002DBA5F5006005B200EE105AF8EEC00A3B
:101F1000B4EE001A1CE0000018040020AC38223B8C
:101F2000B016CE393F161B41000020420AD7A33B12
:101F300000000000E0030020E4030020EC03002088
:101F4000B43400209A99193E6F12033A1C04002001
:101F5000B3EE070A00EE810A84ED060A34480088D1
:101F6000401C00B232490880324890ED000AF6EE7B
:101F7000000AB4EEE00AF1EE10FA3FF7D3AD94EDAB
:101F80000C0ADFED2D0A30EE600AB0EEC00AF6EE64
:101F9000000AB4EEE00AF1EE10FAEEDC274890ED0C
:101FA000000A5FED180AB4EEE00AF1EE10FAE4DC84
:101FB00090ED010A5FED1D0AB4EEE00AF1EE10FAB1
:101FC000DBDC90ED020A5FED210AB4EEE00AF1EEEF
:101FD00010FAD2DC94ED090AB0EEC00ADFED180A5F
:101FE000B4EEE00AF1EE10FAC7DC94ED0A0AB0EEA6
:101FF000C00ADFED130AB4EEE00AF1EE10FABCDC21
:1020000094ED0B0AB0EEC00ADFED0D0AB4EEE00A63
:10201000F1EE10FAB1DC00BF94ED0C0ADFED090A15
:1020200080EE801A84ED081A08B0BDEC048B70BDF8
:10203000F2030020EC030020CDCC1C41B43400207E
:102040000AD7233CC3F51C4100BF00F047F8FCE76A
:102050002DE9F04104460D4616460022062104F102
:1020600070000DF0ABF90022082104F1A8000DF07A
:10207000A5F928460AF040F8DFED140A9FED140A8E
:10208000144A0021304608F0A9F800270AE0B4F805
:10209000A820AC20015B10480CF066FE01200DF07A
:1020A0008BFD7F1C0A2FF2DB00270AE0B4F87020BA
:1020B0007420015B08480CF057FE01200DF07CFDF8
:1020C0007F1C0A2FF2DBBDE8F08100000000000059
:1020D0000000B44278570108AC0C002008B502E0BB
:1020E00001200DF069FD674890F890000028F7D0B6
:1020F0000020654981F80202644A65496548FFF796
:10210000A7FFDFED650A9FED650A654A0021654876
:1021100008F064F80EF028FFB2E063480088401C25
:102120006149088008460088C82817DB002008801D
:102130005848B0F8A820B0F8AC105C480CF014FE79
:1021400001200DF039FD5348B0F87020B0F874103C
:1021500056480CF009FE01200DF02EFD494A4C496D
:102160004C480BF03FFB0EF0DBFC51490880474820
:10217000504B444A4649009046480AF079FF45488A
:1021800090F89801012849D1414890ED1E0AB0EE1F
:10219000402ADFED491A9FED401ADFED3F0A9FED1F
:1021A0003E0A082141480DF06DFB444800680DF0DF
:1021B00003FD374890ED1D0AB0EE402ADFED3E1AD0
:1021C0009FED351ADFED340A9FED330A06213748BB
:1021D0000DF058FB394800680DF0EEFC2D4890EDED
:1021E000740ADFED370A80EE201ABDEEC10A10EE48
:1021F000100A01B22748A0F8C8110146B1F8C81169
:10220000494208B200232A49B1F900201946FFF7D4
:102210004DFC2A4800680DF0CFFC31E000211D483C
:10222000A0F8C8119FED1C2ADFED231A9FED1A1AA2
:10223000DFED190A9FED180A08211C480DF022FB5A
:102240001E4800680DF0B8FC9FED132ADFED1A1A46
:102250009FED111ADFED100A9FED0F0A06211348BA
:102260000DF010FB154800680DF0A6FC00231A467F
:1022700019461846FFF71AFC104800680DF09CFC40
:102280004BE7000024350020942E002088230020F6
:10229000D82200206C1C0020000000000000A0429A
:1022A0006C570108DC230020EC020020AC0C00205D
:1022B000E8020020A0020020CDCC4C3FE402002028
:1022C0000200C03900BF00F06FF8FCE72DE9F041D3
:1022D00004460E46174698460CF03EFEC4F8A00190
:1022E0000022062120460DF069F80022082104F1A1
:1022F00038000DF063F8304609F0FEFEDFED210AEC
:102300009FED210A214A0021384607F067FF00258A
:1023100008E0228FA18F1E480CF026FD01200DF051
:102320004BFC6D1C0A2DF4DB002508E02288A188F7
:1023300017480CF019FD01200DF03EFC6D1C0A2D14
:10234000F4DB002510E0C5EBC50101EB410204F50B
:10235000237101EB8200DFED0F0A9FED0F0A0F4A98
:10236000002107F03BFF6D1C022DECDBDFED0C0ABA
:10237000B2EE040A0B4A002104F50E7007F02EFF9E
:10238000BDE8F081000000000000B4424857010899
:10239000840C00200000FA4400007A4660570108CF
:1023A000CDCC4C3E545701082DED028B82B09FEDF1
:1023B000F80AF84880ED530A9FEDF70A80ED4C0AC1
:1023C0009FEDF50A80ED490A9FEDF30A80ED480A7A
:1023D0000020F04981F89C019FEDF00A084680ED4D
:1023E0004D0A0020EE4981F802029FEDEB0AE94810
:1023F00080ED4B0A02E001200DF0DEFBE94890F889
:1024000090000028F7D0E84BE84AE949E148FFF797
:102410005DFFE84BE84AE949E94807F00FFF0EF095
:10242000A3FDDFEDDD0A9FEDE70AE74A0021E7485B
:1024300007F0D4FEF7E3E6480088401CE449088032
:1024400008460088C82813DB00200880D148028F86
:10245000818FE0480CF088FC01200DF0ADFBCD48E9
:1024600002888188DB480CF07FFC01200DF0A4FB82
:1024700000200EF0BDFFC74981F834020846D0F8AD
:10248000A001808AD44908800846007800F0010045
:10249000D2490880D048007800F00200D049088076
:1024A000CD48007800F00400CE490880CA48007882
:1024B00000F00800CC490880C748008800F480700C
:1024C000CA490880C448008800F40060C8490880F0
:1024D000C148008800F48050C6490880BE48007892
:1024E00000F01000C4490880BB48007800F02000CC
:1024F000C2490880B948008838B1B948008820B17D
:102500000020B6490880B6490880B648008838B12E
:10251000B548008820B10020B2490880B24908803F
:10252000B348008838B1B348008820B10020B049D2
:102530000880B0490880B048008838B1AF480088AA
:1025400020B10020AC490880AC4908809148D0F8FF
:10255000A001807A032809D18E48D0F8A001C07A62
:10256000032803D10120A649087002E00020A449F5
:1025700008708848D0F8A001C07A032805D1B7EECA
:10258000000AA04880ED000A04E09FED830A9D4800
:1025900080ED000A824A92F802129B4A92ED000AEC
:1025A000BCEEC00A10EE102AD0B20B22974BD3ED2E
:1025B000000A974B93ED000A0AF0DAFC01200DF0B7
:1025C000FBFA944890ED000AB8EE400ADFED920A5B
:1025D00080EE208A6F48D0F8A001807A032809D1C4
:1025E00001206C4981F89801B7EE000A864880ED19
:1025F000000A0EE06748D0F8A001807A022808D1CE
:102600000020644981F898019FED630A7E4880EDBF
:10261000000A604890F89C01804908705D480DF000
:10262000DFFF5C4981F89C01084690F89801012879
:102630007CD173480078C0B16C4800880CF0C2FEB1
:1026400008B3544890F8D403012804D1002051491C
:1026500081F8D40317E001204E4981F8D4039FED9F
:102660004E0A6F4880ED000A0DE04A48D0F8A001FC
:10267000807A012803D1474981F8D40303E0002080
:10268000444981F8D4035E48007800286CD0414862
:1026900090F8D40320B13F4890F8D403022813D116
:1026A0004E48008868B34F48008870B1022039490D
:1026B00081F8D4039FED5B0A5B4880ED000AB0EE21
:1026C000000A084680ED4A0AE0E04748008870B1F9
:1026D0000220304981F8D4039FED540A524880ED1E
:1026E000000AB0EE000A084680ED4A0ACEE000205B
:1026F000284981F8D403B0EE000A084680ED4A0A62
:10270000C4E03748008870B33648008878B10220AA
:10271000204981F8D4039FED450A434880ED000A23
:10272000B8EE000A084680ED4A0AAFE03AE22E48C9
:10273000008870B10220174981F8D4039FED390A4F
:10274000394880ED000AB8EE000A084680ED4A0AD2
:102750009CE000200F4981F8D403B8EE000A084637
:1027600080ED4A0A92E000E080E01E48008870B1E7
:102770000220084981F8D4039FED2D0A2A4880EDF4
:10278000000AB8EE000A084680ED4A0A7EE051E0F1
:10279000B81E053E6C1C0020000000006F12033ABA
:1027A000942E002024350020E821002098200020CD
:1027B000BC1B00203C22002040210020EC200020F7
:1027C000942100200000A0423C5701084420002032
:1027D00092020020840C002002020020040200204B
:1027E00006020020080200200A0200201002002039
:1027F0000C0200200E020020120200201402002011
:10280000C4010020400200203C02002038020020C9
:10281000340200203002002000007A44C60100206B
:10282000F4010020F90F49BFF0010020F90F493FE2
:10283000F90FC93FFC48008870B10220FB4981F8BC
:10284000D4031FED050AFA4880ED000AB0EE000A35
:10285000084680ED4A0A19E01FED310AF34880ED81
:102860004A0A0020F14981F8D4030FE0EF48D0F87C
:10287000A001B0F9020000EE100AB8EEC00ADFEDC8
:10288000ED0A20EE200AE94880ED4A0AEA4800787D
:10289000C0B1E64890ED4A0AB5EEC00AF1EE10FA72
:1028A00008D19FEDE60A00F5907100F594700EF0E6
:1028B0005DFC1EE09FEDE20AE24901F108000EF026
:1028C00055FC16E0D94890ED4A0AB5EEC00AF1EE83
:1028D00010FA07D19FEDDC0ADA4900F594700EF08A
:1028E00045FC06E09FEDD30AD64901F108000EF041
:1028F0003DFCD64890ED020A80ED030A90ED010AF6
:1029000080ED020AC94890ED480AD0ED560A30EE33
:10291000600ADFEDC80A80EE201ACC4880ED011A6B
:1029200090ED010AD0ED020A30EE200AD0ED030A44
:1029300030EE200AF0EE080A80EE201A80ED001A30
:1029400090ED000ADFEDC20A20EE200AC14880EDBA
:10295000000ADFEDC10A9FEDC10A0DF02DF8B34862
:10296000D0ED480ABE4890ED000AB8EE400A20EECD
:10297000800ADFEDBC0A20EE200A5FED590A80EEE6
:10298000201AAA4890ED490A31EE000A80ED490A62
:10299000B54991ED000AF2EE040AB4EEE00AF1EE58
:1029A00010FA0FDD0146D1F8A011B1F9020000289C
:1029B00001DB014600E041420A2903DC0120AB496A
:1029C000087018E0A84991ED000AFAEE040AB4EE86
:1029D000E00AF1EE10FA0ED29449D1F8A011B1F943
:1029E0000200002801DB014600E041420A2902DC26
:1029F00002209E4908709D48007803280BD18B481F
:102A000090ED580ADFED9A0A30EE200A80ED490A6F
:102A10000020964908708548D0F8A001B0F904005C
:102A200000EE100AB8EEC00ADFED920A20EE200A8E
:102A30007E48D0F8A001B0F90C0000EE900AF8EE44
:102A4000E00A9FED8D1A00EE810A8C4880ED000AA5
:102A50007648D0F8A001B0F9060000EE100AB8EEF2
:102A6000C00ADFED840A20EE200A7048D0F8A001E9
:102A7000B0F90E0000EE900AF8EEE00A9FED801A21
:102A800000EEC10A7F4880ED000A684890ED530AC5
:102A9000D0F8A001B0F9000000EE900AF8EEE00ACC
:102AA0009FED791A00EE810A604880ED530A624872
:102AB0000078C0B17548008848B15C4890ED530A71
:102AC000DFED730A30EE200A80ED530A0BE0714807
:102AD000008840B1554890ED530ADFED6D0A30EEA5
:102AE000600A80ED530ADFED6C0A1FEDD70A5548E6
:102AF0002C300CF061FF4D4890ED540AD0ED530A94
:102B000030EE600AB0EEC00ADFED640AB4EEE00A0F
:102B1000F1EE10FA06DD0120614981F8AD0061494E
:102B200081F8AD00414890ED530A80ED540A90F8C9
:102B3000D403012837D15C480088401C5A490880DA
:102B40000846008840F2DC51884205DAB0EE000AFF
:102B5000364880EDF40A14E05348008840F2DC5116
:102B600088420BDB5048008840F6C411884205DAE1
:102B7000B7EE080A2D4880EDF40A02E000204A4929
:102B800008801FEDFB0A294880ED480A9FED470A9F
:102B900080ED490A9FED450A80ED4B0A9FED430AFF
:102BA00080ED560A0CE09FED410A414880ED000A95
:102BB00000203D4908809FED3D0A1C4880EDF40A45
:102BC0003C4A374919480BF0DFFB3B483B4B394A3D
:102BD0003349009015480AF061FE144890F89801B6
:102BE000012871D12E4890ED1E0AB0EE402ADFED8B
:102BF000341A9FED2E1ADFED2D0A9FED2C0A0821C5
:102C000030480CF03FFE164800680CF0D5FF244811
:102C100090ED1D0AB0EE402ADFED291A9FED231A30
:102C2000DFED220A51E0A5E00A0200206C1C002022
:102C3000F00100206F12833BC40100200AD7A33BA0
:102C40006F12033B8C1D00200AD7233CAC1B0020D5
:102C50006F128339000100200AD7A33D0AD7A3BD14
:102C6000300200209A99B940F8000020FC000020B2
:102C7000AE47613E82A8FB37F7CC92383402002081
:102C800017B751B838020020844D78360C02002066
:102C90003480373A0E0200200AD7A33E52491D3A2B
:102CA000BC1B0020D8220020FC01002000000000F6
:102CB000F40100202435002098200020A0020020EC
:102CC000CDCC4C3F840C002024E01FED080A0621E7
:102CD00029480CF0D7FD294800680CF06DFF284802
:102CE00090ED6D0ADFED270A80EE201ABDEEC10AD5
:102CF00010EE100A01B22248A0F8AC110146B1F85A
:102D0000AC11494208B2FEF7B5FE1C4800680CF051
:102D100053FF2EE000211A48A0F8AC111FED1D2A28
:102D20005FED191A1FED1F1A5FED200A1FED210A32
:102D3000082111480CF0A6FD104800680CF03CFF7B
:102D40001FED262A5FED221A1FED281A5FED290AD2
:102D50001FED2A0A062108480CF094FD0748006878
:102D60000CF02AFF0020FEF785FE044800680CF0F6
:102D700023FF00BFFFF75FBB840C00203002002060
:102D80006C1C00208ABACF391B48406800F00060F4
:102D900080B31A48406B00681949884205D94FF042
:102DA000006017494C3908601CE01448406B00680B
:102DB0001149B831884205D94FF0006010495039A7
:102DC00008600FE00D48406B00680B49583188429D
:102DD00004D94FF000600849C86003E04FF000607C
:102DE0000549886005480068006840F400700349A0
:102DF000096808607047000000600240280D00204C
:102E00005864024010B5024801F074F910BD00008A
:102E10007813002010B5024801F06CF910BD0000D5
:102E20005812002010B5024801F064F910BD0000EE
:102E3000D813002010B5024801F05CF910BD000065
:102E4000B812002001680A4BCAB2103AA3FB023242
:102E50001209084B9B5CC365032A04D96FF309016F
:102E6000091D816502E06FF309018165806D70477E
:102E7000ABAAAAAA98580108014600208A6A8B6961
:102E8000002B0FD0B3F5005F1DD08AB3012A30D0DC
:102E9000022A2ED0032A04D1C96A11F0807F00D003
:102EA000012070471AB1012A07D0022AF9D1C96A54
:102EB00011F0807FF5D001207047C96AB1F1C07F61
:102EC000FAD1012070475AB1012A0BD0022A07D04B
:102ED000032AF7D1C96AB1F1C07FF3D1012070474D
:102EE00001207047C96A11F0807FFAD00120704735
:102EF000FFE701207047000008B5084840680090CF
:102F0000074900980968884204D206480068401CB6
:102F10000449086002490098086008BD001000E0FC
:102F200058000020540000200C494868F0EE400A88
:102F300000BF0A494968091A01EE101AF8EE411A51
:102F4000074991ED001AB8EE411A20EE811AF4EE0D
:102F5000C11AF1EE10FAECD370470000001000E047
:102F60004800002010B52DED028B82B004460E48BB
:102F70004068019020680199081A00EE100AF8EEE6
:102F8000400A0A4890ED000AB8EE400A80EE801A26
:102F9000B0EE418A01982060FFF7AEFFB0EE480A1C
:102FA00002B0BDEC028B10BD001000E04800002014
:102FB00010B52DED028B00F059F80F4890ED000A86
:102FC000B8EE400A808800EE900AF8EE600A9FEDA5
:102FD0000B1A00EE810A0848C08800EE900AF8EE4D
:102FE000600A9FED071A00EE810AB0EE408AB0EE4B
:102FF000480ABDEC028B10BD400000206F12833ADE
:10300000BD3786351249096841F08071104A116058
:103010000021104A51601146096841F00101116018
:103020000D4941430D4A1160114609684FF47A7207
:10303000B1FBF2F10A4A116008490968064AB1FB7E
:10304000F2F1084A11600021074A11607047000040
:10305000FCED00E0001000E040420F0048000020BE
:103060004C000020500000205400002038B52948B2
:1030700040680090FFF740FF274800684FF0FF319D
:10308000A0FB01310098181841F10001234A03C246
:10309000234800232149026803C9FDF705FF214A9F
:1030A00003C220480CC81E4800680024A2FB00157B
:1030B00003FB005002FB04021848D0E90030591A03
:1030C00060EB0200184AC2E9001016480068174970
:1030D0000860174800231449026803C9FDF7E4FE9D
:1030E00012498880084680881149096841430E4882
:1030F000D0E90030591A60F100000E4AC2E9001010
:103100000D4800230B49026803C9FDF7CDFE0749AE
:10311000C88038BD001000E054000020600000208E
:1031200048000020680000207000002040000020BF
:103130004C0000207800002050000020704710B59F
:10314000012001F059F910BD10B5082001F054F923
:1031500010BD10B5102001F04FF910BD10B52020A2
:1031600001F04AF910BDD2ED020A92ED021AB6EE54
:10317000000A00EEC10AD2ED030A92ED031A00EE36
:10318000C10AD0ED000A20EE200AD2ED010A92ED2C
:10319000021A60EE810A92ED001AD2ED031A41EE96
:1031A000210A90ED011A00EE810AD2ED010A92ED9A
:1031B000031A60EE810A92ED001AD2ED021A41EE76
:1031C000610A90ED021A00EE810AF0EE000A20EE8C
:1031D000200A81ED000A92ED010AD2ED020A20EEEA
:1031E000200AD2ED000A92ED031A00EEC10AD0EDDA
:1031F000000A60EE200A92ED011AD2ED011AB6EE35
:10320000000A01EE610AD2ED031A92ED032AB0EE34
:10321000401A01EEC21AD0ED011AB0EE600A01EEBA
:10322000210AD2ED020A92ED031A60EE810A92EDB4
:10323000001AD2ED011A41EE210A90ED021A00EEB9
:10324000810AF0EE000A20EE200A81ED010A92EDDB
:10325000010AD2ED030A20EE200AD2ED000A92ED17
:10326000021A00EE810AD0ED000A20EE200AD2ED0B
:10327000020A92ED031A60EE810A92ED001AD2ED75
:10328000011A41EE610A90ED011A00EE810A92EDF9
:10329000011AD2ED011AF6EE000A41EE610A92ED32
:1032A000021AD2ED021A41EE610A90ED021A00EE06
:1032B000810AF0EE000A20EE200A81ED020A704732
:1032C000704790F82020012A07D0022A05D0416AD1
:1032D00041F4802141620120704700684269114336
:1032E00041610020704770B490F82040D0F800C0D1
:1032F000DCF808C0012C08D0022C06D0416A41F449
:103300008021416270BC012070470CF080640CF099
:1033100000652C4302D11CF0805F55D0CCF3016CCA
:10332000012404FA0CF41C608B684FF4C0749BB148
:10333000CD6804EB0C162B434D6843EAC5030568C2
:10334000AB514FF4C273066803EB0C130D69F550D3
:10335000097D012909D00DE00D88CB6804EB0C161E
:1033600043EA45530568AB51EBE70168CD5845F496
:103370008075CD501179D379557941EA03619379FC
:103380001B0443EA052319434FF4C675036805EB94
:103390000C1559511178D37841EA0361937852782A
:1033A0001B0443EA022211434FF4C473026803EB87
:1033B0000C13D150016804EB0C100A5842F00102C2
:1033C0000A5070BC00207047416A41F4001141620C
:1033D00070BC01207047000090F82020012A07D01F
:1033E000022A05D0416A41F48021416201207047E0
:1033F0004248D0F8002242F00102C0F80022D0F882
:10340000002222F47C52C0F80022D0F800224B6A3D
:1034100042EA0322C0F800220A7D012302F01F02C3
:1034200003FA02F2D0F81C329343C0F81C32CB6985
:10343000D3B9D0F80C329343C0F80C32B1F80CC0B9
:103440004B686CF31F43D1F814C000EBCC0CCCF8E4
:103450004032B1F808C00B686CF31F43D1F814C0B8
:1034600000EBCC0CCCF84432CB69012B1AD1D0F84C
:103470000C321343C0F80C32B1F800C04B686CF347
:103480001F43D1F814C000EBCC0CCCF84032B1F89B
:1034900008C0CB686CF31F43D1F814C000EBCC0C10
:1034A000CCF844328B697BB1D0F804321343C0F8B6
:1034B00004320B6973B1D0F814321343C0F81432DC
:1034C000096A01290CD010E0D0F804329343C0F807
:1034D0000432EEE7D0F814329343C0F81432EFE729
:1034E000D0F81C121143C0F81C12D0F8001221F0C1
:1034F0000101C0F800120020704700000064004085
:10350000704730B490F820C0BCF1010F09D0BCF175
:10351000020F06D0416A41F48021416230BC012093
:10352000704739B1D0F800C0DCF810C01CF0030FB0
:1035300033D006E0D0F800C0DCF80CC01CF0030F5C
:1035400024D04FF4D87C04680CEB011C54F80C40D8
:1035500004F0040494603CB3046854F80C40E4089C
:103560005460046854F80CC00CF0020CC2F80CC093
:103570004FF4DA7C04680CEB011C54F80C5005F095
:103580000F05082D16D30824146118E0416A41F490
:103590000011416230BC01207047416A41F40011C2
:1035A000416230BC01207047046854F80C40640D3F
:1035B0001460D6E754F80C4004F00F04146104685A
:1035C00054F80C40C4F307249461046854F80CC008
:1035D0004FEA1C4CC2F814C04FF4DC72D0F800C0A3
:1035E00002EB01125CF802C083F800C0D0F800C002
:1035F0005CF802C04FEA1C2C83F801C0D0F800C070
:103600005CF802C04FEA1C4C83F802C0D0F800C03E
:103610005CF80220120EDA704FF4DE72D0F800C0AF
:1036200002EB01125CF802C083F804C0D0F800C0BD
:103630005CF802C04FEA1C2C83F805C0D0F800C02B
:103640005CF802C04FEA1C4C83F806C0D0F800C0FA
:103650005CF80220120EDA7139B10068016941F09C
:103660002001016130BC002070470068C16841F052
:103670002001C160F6E72DE9F05F054600242868C7
:103680004669D0F804908768D0F80CA0D0F810B044
:10369000D0F8188016F0010F54D017F0010F17D092
:1036A0000121816017F0020F03D0284600F08CFC46
:1036B0000EE017F0040F02D04FF4006408E017F09A
:1036C000080F02D04FF4805402E0284600F07BFC43
:1036D00017F4807F19D029684FF48070886017F440
:1036E000007F03D0284600F071FC0EE017F4806FD5
:1036F00002D044F4005408E017F4006F02D044F400
:10370000804402E0284600F060FC17F4803F19D0A6
:1037100029684FF48030886017F4003F03D02846B2
:1037200000F056FC0EE017F4802F02D044F4004461
:1037300008E017F4002F02D044F4803402E0284659
:1037400000F045FC16F0080F07D01AF0100F04D057
:1037500044F4007429681020C86016F0040F4FF07C
:10376000080707D01AF0080F04D02868C760284659
:1037700000F000FA16F0020F07D02868C06810F0B9
:10378000030F02D0284600F0F7F916F0400F07D0DB
:103790001BF0100F04D044F48064296810200861E5
:1037A00016F0200F07D01BF0080F04D0286807611F
:1037B000284600F0D3FB16F0100F07D028680069E8
:1037C00010F0030F02D0284600F0C9FB16F4003FAA
:1037D00008D019F0100F05D029681020486028463D
:1037E00000F0BEFB16F4803F07D019F0080F04D09C
:1037F00028684760284600F0ECFB16F4004F4AD0DA
:1038000019F0040F44D016F4807F04D018F0010F93
:1038100001D044F0010416F4007F04D018F0020F28
:1038200001D044F0020416F4806F04D018F0040FA5
:1038300001D044F0040416F4006F29D018F0700F82
:1038400026D008F07000402815D006DC102809D0DA
:1038500020280AD0302816D10AE050280ED060283F
:1038600011D10EE044F008040DE044F010040AE029
:1038700044F0200407E044F0400404E044F08004F5
:1038800001E044F480742868816921F0700181614D
:10389000296804204860002C05D0686A20436862CB
:1038A0002846FFF72DFEBDE8F09F70B50446002CBA
:1038B00003D094F8200010B104E0012070BD204630
:1038C00000F0A8F82068016841F00101016000F0F3
:1038D000BDFE0546206840684FF0050610F0010F58
:1038E00011D100F0B3FE401B0A2807D9606A40F4EA
:1038F0000030606284F82060012070BD206840685C
:1039000010F0010FEDD02068016821F00201016084
:1039100000F09CFE05462068406810F0020F11D0B0
:1039200000F094FE401B0A2807D9606A40F400307A
:10393000606284F82060012070BD2068406810F04B
:10394000020FEDD1207E01283FD02068016821F0D0
:1039500080010160607E01283DD02068016821F06F
:1039600040010160A07E01283BD02068016821F061
:1039700020010160E07E012839D02068016841F013
:1039800010010160207F012837D02068016821F0F4
:1039900008010160607F012835D02068016821F0AE
:1039A00004010160E168A06862690843216911436C
:1039B00008436168491E08432168C86100206062AD
:1039C000012084F82000002070BD2068016841F0CB
:1039D00080010160BEE72068016841F0400101609C
:1039E000C0E72068016841F020010160C2E720685B
:1039F000016821F010010160C4E72068016841F00E
:103A000008010160C6E72068016841F00401016017
:103A1000C8E7000010B586B00446142101A8FDF7E0
:103A2000A6FB4E492068884241D14D480068401CA1
:103A30004B4908600846006801280FD100BF0020EC
:103A400000904848006840F0007046490860084609
:103A5000006800F00070009000BF00BF00BF0020B1
:103A6000009040481038006840F008003D49103987
:103A700008600846006800F00800009000BF00BF22
:103A80000320019002200290002003900320049064
:103A90000920059001A9344800F0BAFC0022062153
:103AA000142001F025F8142001F014F854E02F49F7
:103AB0002068884250D100BF00200090294800684B
:103AC00040F08060274908600846006800F0806088
:103AD000009000BF00BF22480068401C20490860D9
:103AE0000846006801280FD100BF002000901D4843
:103AF000006840F000701B4908600846006800F04C
:103B00000070009000BF00BF00BF0020009015486B
:103B10001038006840F00200124910390860084669
:103B2000006800F00200009000BF00BF602001901C
:103B300002200290002003900320049009200590A9
:103B400001A90B4800F064FC00220621402000F08F
:103B5000CFFF402000F0BEFF06B010BD0064004063
:103B60002800002040380240000C0240006800405D
:103B7000000402407047000010B52DED048B8AB0A0
:103B8000044601AB03AA00212046FFF7BAFCE24835
:103B900084427DD140F201220398811A904278D06C
:103BA00008DC03281CD0042820D0092825D015289B
:103BB00070D106E001296ED002296DD00329F7D11A
:103BC000F1E0082201A9D548FDF798FFD348007815
:103BD000012804D1D2480088401CD14908802DE139
:103BE000082201A9CF480BF073F827E1082201A9A8
:103BF000CC4838300BF06CF820E1082201A9C94804
:103C0000E0300BF065F8C74890ED3F0A10EE101A4F
:103C1000084611F04BFA41EC180B9FEDC30B53EC27
:103C2000102B10F00CFE28D8BE4890ED3F0A10EE85
:103C3000101A084611F03AFA41EC180B9FEDBC0B34
:103C400053EC102B10F000FD17D8B64890ED3F0A4A
:103C500010EE101A084611F029FA41EC190B9FEDED
:103C6000B20B53EC102B10F01FFF41EC180B10F0AF
:103C70001DF80146AB48C0F8FC10AA4890ED3F0A79
:103C8000B5EEC00AF1EE10FA2DD890ED3F0A04E02F
:103C9000D5E085E0D1E084E084E010EE101A08461B
:103CA00011F004FA41EC180B9FEDA30B53EC102B11
:103CB00010F0C5FD17D29B4890ED3F0A10EE101A88
:103CC000084611F0F3F941EC190B9FED970B53ECFB
:103CD000102B10F04DF941EC180B0FF0E7FF0146E7
:103CE0009048C0F8FC108F4890ED3F0A10EE101A73
:103CF000084611F0DBF941EC180B9FED8F0B53ECEC
:103D0000102B10F0A1FC28D8864890ED3F0A10EE49
:103D1000101A084611F0CAF941EC180B9FED880BF8
:103D200053EC102B10F08BFD17D87E4890ED3F0A16
:103D300010EE101A084611F0B9F941EC190B9FED7D
:103D40007C0B53EC102B10F013F941EC180B0FF017
:103D5000ADFF01467348C0F8FC107248B0F8AC03E0
:103D600001B27048A0F8B41390ED3F0ADFED760A77
:103D700020EE200A10EE101A084611F097F941ECD7
:103D8000190B9FED690B53EC102B10F023FA41EC4B
:103D9000180B10F0DDFB81B26248A0F8AC134DE0C7
:103DA00000BF00BF00BF0398401E68490870084666
:103DB0000078C0EBC001664830F8210001B26348CA
:103DC0000078C0EBC002624800EB820001819DF8E0
:103DD00005009DF8041040EA01215C480078C0EB22
:103DE000C0025B4820F822109DF807009DF80610DD
:103DF00040EA012001B255480078C0EBC0025448A7
:103E000000EB820041809DF809009DF8081040EA0F
:103E1000012001B24D480078C0EBC0024C4800EBD5
:103E2000820081809DF80A1048480078C0EBC002EB
:103E3000474800EB8200817100E000BF00BF4548A9
:103E4000844265D10398032807D004280CD0A0F23F
:103E5000052080B1022859D10EE0082201A931487D
:103E600070300AF035FF52E0082201A92D48A83031
:103E70000AF02EFF4BE000BF0398001F3649087080
:103E800008460078C0EBC001314830F8210001B28B
:103E900031480078C0EBC0022D4800EB8200018160
:103EA0009DF805009DF8041040EA01212A48007899
:103EB000C0EBC002264820F822109DF807009DF8AC
:103EC000061040EA012001B223480078C0EBC0028E
:103ED0001F4800EB820041809DF809009DF8081002
:103EE00040EA012001B21C480078C0EBC00218482B
:103EF00000EB820081809DF80A1017480078C0EB23
:103F0000C002134800EB8200817100E000BF00BFD7
:103F10000AB0BDEC048B10BD840C00201C190020DD
:103F2000800000206C1C00200000000000001940F0
:103F3000000000000000294000000000000019C03F
:103F400000000000000029C0000000469200002090
:103F5000141E0020AC0C0020930000207047704716
:103F6000704770B5044694F82000012805D0606AB7
:103F700040F400206062012070BD022084F820001F
:103F80002068016821F00101016000F05FFB054637
:103F90002068406810F0010F12D000F057FB401B62
:103FA0000A2808D9606A40F400306062052084F86D
:103FB0002000012070BD2068406810F0010FECD196
:103FC0000020606270BD704770477047704770474F
:103FD0007047704710B50446002C02D0607910B1CC
:103FE00006E0012010BD00202071204600F004F8FA
:103FF00001206071002010BD08B50A4A0168914295
:104000000FD100BF002100910749096841F4805198
:10401000054A11601146096801F48051009100BF02
:1040200000BF08BD00300240303802402DE9F041A9
:104030000446A66D00F00AFB054694F835000027FB
:10404000022806D08020606584F834700120BDE825
:10405000F0812068016821F0160101602068416943
:1040600021F080014161206C08B9A06C20B120686A
:10407000016821F0080101602068016821F0010158
:1040800001602068006810F0010F12D000F0DEFA25
:10409000401B052808D920206065032084F83500DE
:1040A00084F83470BDE8F0812068006810F0010FDA
:1040B000ECD194F85C003F2101FA00F0B0600120DF
:1040C00084F8350084F834700020BDE8F08190F861
:1040D0003510022903D08021416501207047052158
:1040E00080F835100068016821F0010101600020AE
:1040F000704700002DE9F84304464FF00008CDF862
:10410000008076484FF416510068B0FBF1F7A56DBA
:104110002E6894F85C00082101FA00F0304211D0BA
:104120002068026812F0040F0CD0026822F004022A
:10413000026094F85C0001FA00F0A860606D40F045
:104140000100606594F85C004FF0010909FA00F085
:10415000304209D02168496911F0800F04D0A8606D
:10416000606D40F00200606594F85C1004208840A7
:10417000304209D02168096811F0020F04D0A8600C
:10418000606D40F00400606594F85C101020884079
:10419000304224D02168096811F0080F1FD0A860B0
:1041A0002068016811F4802F0DD0006810F4002FF2
:1041B00004D0A16C99B12046884710E0216C71B100
:1041C000204688470BE0016811F4807F03D1016825
:1041D00021F008010160216C09B12046884794F85C
:1041E0005C1020208840304251D02168096811F0CD
:1041F000100F4CD0A86094F8350005280DD0206829
:10420000016811F4802F32D0006810F4002F29D0FB
:10421000E16B59B32046884739E02068016821F0F6
:10422000160101602068416921F080014161206C24
:1042300008B9A06C20B12068016821F00801016074
:1042400094F85C003F2101FA00F0A86084F83590F2
:1042500084F83480216D00293ED001B02046BDE8AD
:10426000F0430847616C09B1204688470FE00168B8
:1042700011F4807F07D1016821F01001016084F8FA
:10428000359084F83480E16B09B120468847606D31
:10429000002821D0606D10F0010F15D0052084F8A2
:1042A00035002068016821F0010101600098401C80
:1042B0000090B84204D82068006810F0010FF5D1D2
:1042C00084F8359084F83480E16C002904D001B082
:1042D0002046BDE8F0430847BDE8F88334000020DD
:1042E0002DE9F041044600F0B1F90546DCB10220A9
:1042F00084F83500002684F834602068016821F0D5
:10430000010101602068006810F0010F13D000F077
:104310009DF9401B052809D920206065032084F8F9
:104320003500BDE8F0810120BDE8F081206800681B
:1043300010F0010FEBD121680868234A1040A368F0
:104340006268D4F810C01A43E36843EA0C031A43C6
:1043500063691A43A3691A43E3691A43236A1A4338
:104360001043626A042A03D1236BE26A1A431043A2
:1043700008602068406920F00701606A40EA010592
:10438000012704280ED1A06A0543E06A50B12046F7
:10439000FEF772FD30B14020606584F83570012071
:1043A000BDE8F081206845612046FEF74BFD94F89A
:1043B0005C103F2202FA01F18160666584F8357075
:1043C0000020BDE8F08100003F8010F070B5044689
:1043D00000F03CF90546B4F1FF3F02D004480078F4
:1043E000044400F033F9401BA042FAD370BD000032
:1043F000500500207047000010B504490A680242C9
:1044000002D00860FFF7F6FF10BD0000143C014029
:104410002DE9F84F0022DFF818A2DFF810924FF0D4
:10442000010E03274FF00F08AAF1040B0EFA02FC4D
:104430000B6803EA0C0363457DD10C7904F0030497
:10444000012C01D0022C14D18568540007FA04F61F
:10445000B543CE6806FA04F42C438460446824EA29
:104460000C0C0C79C4F30014944044EA0C0CC0F812
:1044700004C0D1F804C037EA0C0C0CD0C4684FEA71
:10448000420C07FA0CF5AC438D6805FA0CFC4CEABB
:10449000040CC0F80CC091F804C00CF0030CBCF183
:1044A000020F12D14FEAD20C00EB8C04256A4FEABE
:1044B000427C4FEADC6C08FA0CF6B5430E6906FA4A
:1044C0000CFC4CEA050CC4F820C004684FEA420C0E
:1044D00007FA0CF5AC430D7905F0030505FA0CFC61
:1044E0004CEA040CC0F800C0D1F804C01CF4403FF2
:1044F0007DD0D9F800C04CF4804CC9F800C0D9F880
:1045000000C00CF4804CCDF800C022F0030C0CF17C
:10451000804505F59835D5F808C89407240F08FAA2
:1045200004F62CEA0606A0F1804CBCF5003C64D0F1
:10453000A0F1804C00E05AE0BCF5013C60D0A0F155
:10454000804CBCF5023C5ED0A0F1804CBCF5033C35
:104550005CD0A0F1804CBCF5043C5AD0A0F1804C5A
:10456000BCF5053C58D0A0F1804CBCF5063C56D0BB
:10457000A0F1804CBCF5073C54D04FF0080C0CFA6D
:1045800004FC4CEA060CC5F808C8DAF800C02CEAAE
:10459000030C4C6814F4801F01D04CEA030CCAF8D9
:1045A00000C0244CD4F800C02CEA030C4D6815F46C
:1045B000001F01D04CEA030CC4F800C0DBF800C0B7
:1045C0002CEA030C4C6814F4003F01D04CEA030CB5
:1045D000CBF800C0184CD4F800C02CEA030C4D688E
:1045E00015F4803F01D04CEA030CC4F800C0521C03
:1045F000102AFFF41BAFBDE8F88F4FF0000CBEE7A8
:104600004FF0010CBBE74FF0020CB8E74FF0030C82
:10461000B5E74FF0040CB2E74FF0050CAFE74FF0F1
:10462000060CACE74FF0070CA9E700004438024045
:10463000083C01400C3C0140003C0140002A01D0F4
:1046400081617047090481617047000001488068FA
:10465000704700005005002070B50446002C04D0BF
:1046600094F83D00002510B106E0012070BD84F8EB
:104670003C50204600F0C6F8242084F83D00206815
:10468000016821F0010101602068016841F40041E6
:1046900001602068016821F40041016000F086FF9C
:1046A000544B6168994203D85349884203D304E0CC
:1046B0005249884201D2012070BD5149B0FBF1F14D
:1046C0002268D2F804C02CF03F0C4CEA010CC2F86E
:1046D00004C062689A4201D84A1C07E04FF49672FF
:1046E00051434FF47A72B1FBF2F14A1C2168D1F8C0
:1046F00020C02CF03F0C42EA0C020A626168994229
:1047000010D84900401EB0FBF1F2521CC2F30B025C
:10471000042A01D2042026E0B0FBF1F0401CC0F3D3
:104720000B0020E0A268002A50D001EBC10303EB8C
:104730000113A0F1010CBCFBF3F35B1C43F48043B9
:104740001B051B0D4AD0002A4AD001EBC10202EB27
:104750000111401EB0FBF1F0401CC0F30B0040F40F
:10476000804040F400402168CA6922F0FF0222F430
:104770004F421043C861216AE06901432068026822
:1047800022F0C00211430160E16820690143206802
:10479000826822F0FF0222F4034211438160A16982
:1047A000606901432068C26822F0FF021143C160C2
:1047B0002068016841F0010101602564202084F82F
:1047C0003D00256384F83E50002070BD01EB41039D
:1047D000A0F1010CBCFBF3F35B1CB1E70120C2E7C5
:1047E00001EB4101401EB0FBF1F0401CC0F30B0097
:1047F000B7E70000A086010080841E0000093D008C
:1048000040420F0010B586B00446142101A8FCF701
:10481000AEFC6F492068884230D100BF0020009074
:104820006C48006840F002006A4908600846006869
:1048300000F00200009000BF00BF4FF440700190F4
:104840001220029001200390032004900420059080
:1048500001A96148FFF7DCFD00BF002000905D4822
:104860001030006840F400105A49103108600846C2
:10487000006800F40010009000BFA6E057492068CF
:10488000884250D100BF002000905248006840F09C
:104890002000504908600846006800F020000090A1
:1048A00000BF00BF0320019012200290012003905E
:1048B000032004900420059001A94948FFF7A8FDB2
:1048C00000BF0020009043481030006840F4800092
:1048D0004049103108600846006800F480000090EC
:1048E00000BF00BF3F48404908604FF0606048602B
:1048F00040213D4881600021C1604FF48061016129
:10490000002141618161C1614FF4003101620021E8
:104910004162FFF7E5FC08B1FEF7D2FC00BF324868
:104920006063846351E03149206888424DD100BF03
:10493000002000902748006840F0040025490860E6
:104940000846006800F00400009000BF00BF00BFF0
:10495000002000900846006840F00100086008460A
:10496000006800F00100009000BF00BF48150190F2
:10497000122002900120039003200490042005904F
:1049800001A91B48FFF744FD4FF4807001901220ED
:10499000029001200390032004900420059001A9B7
:1049A0001448FFF735FD00BF002000900948103083
:1049B000006840F4000007491031086008460068AC
:1049C00000F40000009000BF00BF06B010BD000062
:1049D00000540040303802400004024000580040BB
:1049E00000140240B8600240D00D0020005C00407E
:1049F0000008024000000240024881680278114429
:104A0000816070475005002010B50B48016841F4E3
:104A100000710160016841F480610160016841F446
:104A200080710160032000F097F80F2000F006F875
:104A300000F026F8002010BD003C024070B504468E
:104A40000D4D4FF47A712878B1FBF0F00B490968ED
:104A5000B1FBF0F001F058FB08B1012070BD102C43
:104A600007D200222146501E00F042F86C60002060
:104A700070BD012070BD00005005002034000020F2
:104A800008B500BF002000901148006840F4804045
:104A90000F4908600846006800F48040009000BF9D
:104AA00000BF00BF00200090081F006840F0805049
:104AB000091F08600846006800F08050009000BFA1
:104AC00000BF00220F21901E00F012F808BD000068
:104AD0004438024000280ADB00F01F01012202FADC
:104AE00001F14009800000F1E020C0F8001170479A
:104AF00010B4184B1B68C3F30223C3F1070CBCF1BD
:104B0000040F01D94FF0040C1C1D072C01D2002307
:104B100000E0DB1E012404FA0CFCACF1010C0CEAF1
:104B20000101994004FA03F35B1E1A401143002867
:104B300006DB00F1E020090180F8001410BC70478A
:104B400000F00F0000F1E020090180F8141D10BCF6
:104B5000704700000CED00E000F00700064A116805
:104B60004FF6FF03194041EA002040F0FD7040F08D
:104B700080601060704700000CED00E070477047E7
:104B800070477047704711F0800F01F00F0101EB83
:104B9000C10100EB810101D0143101E001F5157173
:104BA000006806F019BC2DE9F05F04462568284628
:104BB00006F0C8FC00287ED1206806F0EFFC002833
:104BC00079D0D5F80808C0F30D20C4F8D4042068C3
:104BD00006F0E4FC10F0020F04D02068416901F0F7
:104BE00002014161206806F0D9FC10F0100F36D0A8
:104BF0002068816921F0100181612F6A07F00F00A0
:104C000000EBC00004EB800000F51576C7F34340CD
:104C1000022802D0062812D01CE047F6F0700742A6
:104C200018D0C7F30A1217462846F16806F0BAFCF6
:104C3000F0683844F0607069384470610AE0082216
:104C400004F29C41284606F0ADFC7069C7F30A11D6
:104C5000084470612068816941F010018161206819
:104C600006F09CFC10F4002F4FF0100B4FF0000AE0
:104C70004FF0010967D00026206806F06EFC8046E0
:104C80005FEA08005FD018F0010F56D0F1B220683B
:104C900006F07CFC074617F0010F07D005EB461025
:104CA000C0F8089B3146204604F036FE17F0080F86
:104CB0000AD0082000E01EE205EB4611C1F8080BFF
:104CC0003146204604F004FE17F0100F03D005EB28
:104CD0004610C0F808BB17F0020F1DD0686910F02D
:104CE000800F05D0D5F8040840F48061C5F8041899
:104CF00006EBC60004EB800000F51570C1780129B1
:104D000005D180F803A0F1B2204600F0FEF905EBD2
:104D100046110220C1F8080B17F0200F04D005EB54
:104D200046112020C1F8080B17F4005F05D005EBF1
:104D300046114FF40050C1F8080B761C4FEA580892
:104D4000B8F1000F9FD1206806F028FC10F4802FE6
:104D500074D0206806F0FAFB07460026002F6DD0BD
:104D60004FF0020B17F0010F64D0F1B2206806F08B
:104D7000FBFB804618F0010F24D006F00F0009FA63
:104D800000F0D5F834188143C5F8341805EB461007
:104D9000C0F80899A079012810D106EBC60004EBF1
:104DA0008000C269016A114401623EB9606A28B993
:104DB00004F29C420121206806F0DEFAF1B220469E
:104DC000FFF7DEFE18F0080F04D005EB46110820AF
:104DD000C1F8080918F0100F04D005EB4611102097
:104DE000C1F8080918F0400F04D005EB4611402027
:104DF000C1F8080918F0020F15D03146284606F010
:104E00006AFB06EBC60004EB80001430C178012970
:104E100005D180F803A0F1B2204600F075F905EB4A
:104E20004610C0F808B918F0800F03D0314620466C
:104E300004F0E6FD761C7F08002F93D1206806F071
:104E4000ADFB10F0004F11D0D5F8040820F001019F
:104E5000C5F8041894F8CC04012861D0204600F06D
:104E60001EFA2068416901F000414161206806F0A6
:104E700095FB10F4006F0CD0D5F8080810F0010F66
:104E800002D0204600F00EFA2068416901F400616A
:104E90004161206806F082FB10F4805F65D0D5F890
:104EA000040820F00101C5F804181021206806F05C
:104EB00012FB0021207900281DD94FF67F3205EB27
:104EC0004110C0F80829D0F8003923F40013C0F8C5
:104ED0000039C0F8082BD0F8003B23F40013C0F8C9
:104EE000003BD0F8003B43F00063C0F8003B491C96
:104EF00020798842E3D8D5F81C0840F00111C5F8A4
:104F00001C18E07B98B1D5F8840840F00B01C5F877
:104F10008418D5F8440840F00B01C5F8441813E094
:104F200084F8CCA400212046FFF728FE99E7D5F8A5
:104F3000140842F22B010143C5F81418D5F81008E3
:104F400040F00B01C5F81018D5F8000820F4FE61F8
:104F5000C5F80018A17904F29C42206806F00CFA0A
:104F60002068416901F480514161206806F016FB18
:104F700010F4005F16D0206806F0AEF8206806F046
:104F8000D1FAE07100F00CFB23680146E279184683
:104F900006F064FB204600F081F92068416901F4C5
:104FA00000514161206806F0F9FA10F0080F07D0AF
:104FB000204600F075F92068416901F0080141615F
:104FC000206806F0EBFA10F0800F17D0A86920F0E7
:104FD0008001A9610126207901280FD906EBC600BE
:104FE00004EB800090F85702012803D1F1B220466B
:104FF000FFF7C9FD761C2079B042EFD8206806F093
:10500000CDFA10F4801F22D001262079012819D969
:1050100005EB4610D0F8001906EBC60004EB800043
:10502000027E012A0AD111F0004F07D080F81790B4
:10503000F0B240F080012046FFF7A5FD761C2079F4
:10504000B042E5D82068416901F4801141612068CF
:1050500006F0A4FA10F4001F2DD0012021790129B7
:1050600024D905EB4011D1F8001B00EBC00204EB82
:10507000820292F85832012B14D111F0004F11D056
:1050800094F8D434C1F3004103F001038B4209D1F9
:1050900082F85792A96941F08002AA61696911F00A
:1050A000800F2AD0401C21798142DAD820684169DA
:1050B00001F400114161206806F070FA10F0804F91
:1050C00007D02046FFF75BFD2068416901F0804171
:1050D0004161206806F062FA10F0040F0BD02068DE
:1050E000456815F0040F02D02046FFF74BFD2068FD
:1050F000416829434160BDE8F09FD5F8040840F4B9
:105100000070C5F80408D1E770477047F8B5044649
:10511000002C05D0266894F89504002510B106E00F
:105120000120F8BD84F89454204600F063F8032071
:1051300084F89504B6F1A04F00D1A571206806F05F
:1051400015F9207C8DF8000094E80F0005F0D2FFDF
:10515000022618B184F895640120F8BD002120686A
:1051600006F044FA18B184F895640120F8BD0021D6
:105170002079012700280FD901EBC10004EB800042
:1051800047750175C1850576C56105624562481C94
:10519000C1B220798842EFD800212079002814D9A3
:1051A00001EBC10004EB800080F8555280F85412E6
:1051B00080F85852C0F85C52C0F86052C0F864528F
:1051C000481CC1B220798842EAD8207C8DF80000C2
:1051D00094E80F0006F00EF818B184F895640120E9
:1051E000F8BD657484F89574206805F0F4FF00201C
:1051F000F8BD000010B586B00446142101A8FBF7E5
:10520000B6FF2068B0F1A04F42D100BF002000904F
:105210002048006840F001001E4908600846006808
:1052200000F00100009000BF00BF4FF4C05001909B
:105230000220029000200390032004900A20059091
:1052400001A91548FFF7E4F800BF1248001D0068E7
:1052500040F080000F49091D086000BF0020009049
:105260000C481430006840F480400A49143108604A
:105270000846006800F48040009000BF00BF00BFF7
:10528000002205214320FFF733FC4320FFF722FCD7
:1052900006B010BD30380240000002407047704731
:1052A00070477047704700002DE9F84304464FF0FF
:1052B000010820784FF0000710F0050F33D0DFF819
:1052C0004491C9F86870FFF7C1F906464E4D286849
:1052D00010F0006F0BD0FFF7B9F9801B022802D93C
:1052E0000320BDE8F883286810F0006FF3D16068F0
:1052F000217A800140EA017044490860C9F8688059
:10530000FFF7A4F90646286810F0006F0BD1FFF7ED
:105310009DF9801B022802D90320BDE8F883286884
:1053200010F0006FF3D0207810F0020F5CD03848F6
:10533000016841F080510160006800F080500090E9
:10534000344D286840F480702860FFF77FF90646E6
:10535000286810F4807F0BD1FFF778F9801B0228B2
:1053600002D90320BDE8F883286810F4807FF3D0C9
:10537000294D286800F4407028B3A18901F44071D8
:10538000814220D0286820F440702449C1F8008070
:105390000F602860286810F0010F14D0FFF756F94D
:1053A0000646286810F0020F0DD141F28837FFF74A
:1053B0004DF9801BB84202D90320BDE8F883286864
:1053C00010F0020FF3D0E0684FF4407131EA0002B0
:1053D00013490CD0086820F4F81008602868A189E7
:1053E000C1F30B01084328600020BDE8F8830A6878
:1053F00020F4407022F4F81220F07040104308604E
:10540000ECE70000000047420038024084380240C8
:10541000403802400070004070380240400E474261
:10542000083802402DE9F04704460D46002C13D001
:10543000DFF85491D9F80000EFB200F00700A8425D
:105440000DD289F80070D9F8000000F00700A842DA
:1054500005D00120BDE8F0870120BDE8F087206875
:105460004A4E10F0020F14D010F0040F03D0306831
:1054700040F4E0503060207810F0080F03D030681E
:1054800040F4604030603068A16820F0F0000843CC
:105490003060207810F0010F3ED060683C49012850
:1054A00008D002280DD003280BD0096811F0020F94
:1054B00028D00AE0096811F4003F06D10120BDE8B8
:1054C000F087096811F0007F19D0316821F00301DD
:1054D00008433060FFF7BAF880463068616800F032
:1054E0000C00B0EB810F17D041F2883AFFF7AEF80D
:1054F000A0EB0800504508D90320BDE8F087012043
:10550000BDE8F0870120BDE8F0873068616800F0F1
:105510000C00B0EB810FE9D1D9F8000000F00700D2
:10552000A8420AD989F80070D9F8000000F00700F5
:10553000A84202D00120BDE8F087207810F0040FC7
:1055400005D03068E16820F4E050084330602078EE
:1055500010F0080F06D03068216920F4604040EA5E
:10556000C100306000F042F831680A4AC1F303110B
:10557000515CC8400849086008480068FFF75EFAB7
:105580000020BDE8F0870000003C024008380240DF
:10559000003802401856010834000020540500204D
:1055A00001480068704700003400002000B5FFF794
:1055B000F7FF04490968044AC1F38221515CC840DD
:1055C00000BD0000083802402856010800B5FFF76A
:1055D000E7FF04490968044AC1F34231515CC840FD
:1055E00000BD0000083802402856010810B51748D1
:1055F000006810F00C01164816D0164B042912D082
:10560000082911D1144C216801F03F02216811F4DE
:10561000800F0AD02068C0F38810A0FB030100238C
:10562000FBF742FC09E0184610BD21680023C1F3D6
:105630008811A1FB0001FBF737FC2168C1F3014190
:10564000491C4900B0FBF1F010BD000008380240D1
:105650000024F400001BB700043802402DE9F84F85
:105660000446002C12D02078FB4E10F0010FA6F15A
:10567000040563D0301D016801F00C0104290CD031
:10568000006800F00C00082803D010E00120BDE8FD
:10569000F88F306810F4800F09D0286810F4003FAC
:1056A0004CD06068002849D10120BDE8F88F6068BF
:1056B000B0F5803F14D0B0F5A02F16D0286820F4A4
:1056C00080302860286820F480202860606810B34B
:1056D000FEF7BCFF0746286810F4003F0ED02DE00F
:1056E000286840F480302860F0E7286840F4802083
:1056F0002860286840F480302860E7E7FEF7A6FFBE
:10570000C01B642802D90320BDE8F88F286810F474
:10571000003FF3D012E0FEF799FF0746286810F427
:10572000003F0BD0FEF792FFC01B642802D9032074
:10573000BDE8F88F286810F4003FF3D12078C74FF8
:1057400010F0020F4FF0000957D0C548016811F062
:105750000C0F14D0006800F00C00082803D130684A
:1057600010F4800F0BD0E06880B301203860FEF7A2
:105770006DFF8046286810F0020F12D01EE02868E6
:1057800010F0020F05D0E068012802D00120BDE82A
:10579000F88F2868216920F0F80040EAC1002860ED
:1057A0002BE0FEF753FFA0EB0800022802D90320EC
:1057B000BDE8F88F286810F0020FF2D02868216940
:1057C00020F0F80040EAC100286016E0FFE7C7F8C3
:1057D0000090FEF73BFF8046286810F0020F0CD0C7
:1057E000FEF734FFA0EB0800022802D90320BDE831
:1057F000F88F286810F0020FF2D1207810F0080F0F
:1058000035D09848DFF860A26169C1B1012101601B
:10581000FEF71CFF8046DAF8000010F0020F26D1D8
:10582000FEF714FFA0EB0800022802D90320BDE810
:10583000F88FDAF8000010F0020FF1D017E0C0F88E
:105840000090FEF703FF8046DAF8000010F0020F28
:105850000DD0FEF7FBFEA0EB0800022802D90320C2
:10586000BDE8F88FDAF8000010F0020FF1D12078CF
:1058700010F0040F71D04FF000087C48006810F061
:10588000805F0AD17948016841F080510160006869
:1058900000F0805000904FF00108DFF8D4B1DBF841
:1058A000000010F4807F1BD1DBF8000040F4807012
:1058B000CBF80000FEF7CAFE8246DBF8000010F4C9
:1058C000807F0DD1FEF7C2FEA0EB0A00022802D9AC
:1058D0000320BDE8F88FDBF8000010F4807FF1D0E2
:1058E000A068DFF890B1012818D005281DD0DBF89A
:1058F000000020F00100CBF80000DBF8000020F0F1
:105900000400CBF80000A06840B3FEF79FFE82467B
:10591000DBF8000010F0020F14D03EE0DBF80000CE
:1059200040F00100CBF80000EDE7DBF8000040F0AC
:105930000400CBF80000DBF8000040F00100CBF8D9
:105940000000E0E7FEF782FEA0EB0A0141F288309A
:10595000814204D90320BDE8F88F26E005E0DBF89A
:10596000000010F0020FEDD017E0FEF76FFE824648
:10597000DBF8000010F0020F0FD0FEF767FEA0EB7F
:105980000A0141F28830814202D90320BDE8F88F34
:10599000DBF8000010F0020FEFD1B8F1010F04D1D5
:1059A0003248016821F080510160A069F0B32C49B0
:1059B00009684FF0FF3801F00C01082966D0022871
:1059C00010D0C7F86090FEF741FE0446286810F03A
:1059D000007F2BD0FEF73AFE001B022851D903208E
:1059E000BDE8F88FC7F86090FEF730FE8146286862
:1059F00010F0007F0CD0FEF729FEA0EB0900022872
:105A000002D90320BDE8F88F286810F0007FF2D19A
:105A1000216AE069A26A0843616A08EB52028901BF
:105A200041EA0241084394F82C1000E055E040EAB6
:105A30000160306001203866FEF708FE04462868E1
:105A400010F0007F49D1FEF701FE001B022813D998
:105A50000320BDE8F88F00000438024000004742F0
:105A600008380240800E47427438024040380240F5
:105A70000070004070380240286810F0007FE2D0CB
:105A80002BE0286810F0007FA4D126E0012822D066
:105A90003068E26900F4800191421AD1226A00F074
:105AA0003F01914215D147F6C071626A0140B1EBE6
:105AB000821F0ED1A26A00F4403108EB5202B1EB12
:105AC000024F06D194F82C1000F07060B0EB016F1B
:105AD00003D00120BDE70120BBE70020B9E770B586
