:020000040800F2
:1000000000D600205903000821A30008297F00081A
:100010001DA300089D2B000831BD00080000000052
:10002000000000000000000000000000990200082D
:10003000D13E000800000000F502000881AC000875
:1000400073030008730300087303000873030008B8
:100050007303000873030008D33E0008730300080D
:1000600073030008DD3E0008E73E00087303000844
:100070007303000873030008730300087303000888
:100080007303000873030008730300087303000878
:10009000A12B00087303000873030008F13E000859
:1000A0007303000873030008730300087303000858
:1000B0007303000873030008730300087303000848
:1000C0007303000873030008730300087303000838
:1000D000730300081DB40008730300082DB4000862
:1000E0007303000873030008730300087303000818
:1000F000730300087303000873030008E53A00085F
:1001000073030008730300087303000873030008F7
:1001100073030008730300087303000873030008E7
:1001200073030008613B00087303000873030008B1
:1001300073030008730300087303000873030008C7
:10014000B12B0008730300087303000885A300089F
:10015000713B0008813B0008913B00085DB5000839
:100160007303000873030008730300087303000897
:100170007303000873030008730300080000000005
:10018000730300087303000800F002F800F074F82D
:100190000AA090E8000C82448344AAF10107DA45E2
:1001A00001D100F069F8AFF2090EBAE80F0013F0C0
:1001B000010F18BFFB1A43F001031847F044010078
:1001C0001045010010F8013B0A4413F0030408BF76
:1001D00010F8014B1D1108BF10F8015B641E05D01B
:1001E00010F8016B641E01F8016BF9D1002D15D0D8
:1001F00010F8014B03F00C030C2BA1EB04040ABF15
:1002000010F8013BA4EB8314A4EB032405F10103D4
:1002100014F8016B5B1E01F8016BF9D5914238BFF0
:1002200010F8013BD1D3704700230024002500269D
:10023000103A28BF78C1FBD8520728BF30C148BF49
:100240000B607047662913F08382642900F0C8862A
:10025000002070471FB513F0C3F99DE8030001F0BB
:1002600089F801F053FB04000020002111F0ECFE9E
:10027000E0601FBD10B510BD01F082FC1146FFF714
:10028000E9FF0FF0A3F901F0A0FC03B4FFF7F2FFC0
:1002900003BC01F017FD00002C4B19680868B0E89A
:1002A000F04F80F30988BFF36F8F4FF0000080F3A9
:1002B000118870470000000008480068006880F35B
:1002C00008884FF0000080F3148862B661B6BFF36F
:1002D0004F8FBFF36F8F00DF00BF00BF08ED00E05E
:1002E000DFF80C00016841F470010160704700BF45
:1002F00088ED00E0EFF30980BFF36F8F134B1A68AE
:100300001EF0100F08BF20ED108A20E9F04F10609A
:1003100009B44FF0500080F31188BFF34F8FBFF343
:100320006F8F11F055F84FF0000080F3118809BC71
:1003300019680868B0E8F04F1EF0100F08BFB0EC65
:10034000108A80F30988BFF36F8F7047BC040020C8
:10035000EFF30580704700000948804709480047CF
:10036000FEE7FEE7FEE7FEE7FEE7FEE7FEE7FEE765
:10037000FEE7FEE704480549054A064B70470000C2
:1003800049AD0008890100080096002000D6002031
:1003900000B6002000B600209FED1A1AF5EE000A04
:1003A00040EE010ABDEEE00AF5EEC00A10EE100ABA
:1003B000F1EE10FA38BF401E00EE100A1349F7EEB6
:1003C000001AB8EEC00A30EEC00ADFED0F0A20EEC8
:1003D000200AFCEEC00A10EE900AC0F3080000EEFE
:1003E000900A01EB8000F8EE600A90ED011A70EEC1
:1003F000600A90ED000A71EEE01A21EE800A00EE2C
:10040000810A704783F9223E00000044C03D010884
:10041000DFED190AB5EEC00A60EE200ABDEEE01A63
:1004200011EE100AF1EE10FA38BF401E00EE100A6D
:100430001349F7EE001AB8EEC00A30EEC00ADFED3D
:100440000F0A60EE200ABCEEE00A10EE100AC0F3BC
:10045000080000EE100A01EB8000B8EE400A90EDB3
:10046000011A70EEC00A90ED000A71EEE01A21EE5A
:10047000800A00EE810A704783F9223E00000044A2
:10048000C03D010870B405880E884468D1F804C0E6
:100490005368B54208D140884988884201BF118815
:1004A0008D425188884203D070BC6FF002007047C3
:1004B00005FB00F1880827D094ED001ADCED000A56
:1004C00094ED010ADCED011A31EE201AD4ED020A96
:1004D00070EE211A9CED020A83ED001AC3ED011A99
:1004E00094ED031ADCED031A30EE800A401E71EE23
:1004F000210A83ED020A04F11004C3ED030A03F19B
:1005000010030CF1100CD7D111F0030030D0B0F172
:10051000004F30D200282BDD211F1B1FACF104023D
:1005200010F0010F0AD091ED010AD2ED010A091D68
:10053000121D30EE200A83ED010A1B1D400817D062
:1005400091ED010AD2ED010A401E30EE200A83ED42
:10055000010A91ED020AD2ED020A01F1080102F14D
:10056000080230EE200A83ED020A03F10803E7D106
:1005700070BC00207047B4EC010A401EFCEC010A7C
:1005800030EE200AA3EC010AF5D1F1E701804280A8
:10059000436070472DE9F34F84B0049840680090A1
:1005A000486801900498B0F800E04588DFEDFE0A45
:1005B00000200290B0EE600AAE4506D10888498856
:1005C000884204BF7146864504D06FF0020006B031
:1005D000BDE8F08F01985FEA010C18BFB7EE001A72
:1005E0003DD000BFBEEB0C0117D0B1F1004F80F041
:1005F0001F82002911DD021F11F0010F1CBFC2ED87
:10060000010A121D4B1006D0C2ED010AC2ED020A0A
:1006100008325B1EF8D100EB8100BCF10102A0ECB6
:10062000011A19D0B2F1004F80F00882002A13DDC0
:10063000031F12F0010F1CBFC3ED010A1B1D511057
:1006400008D000BFC3ED010AC3ED020A491E03F141
:100650000803F7D100EB8200BCF1010CC2D14FF0CE
:1006600000080395002D14BFB0EE602A002000F0B2
:10067000BF8100BF009908FB05F001EB800B0199D9
:10068000DBED002A01EB80000346F0EE421AC6457E
:1006900052D9AEEB0802ABEB850112F0010F17D077
:1006A00001EB850191ED000AB5EEC00AF1EE10FAFA
:1006B00007DDB4EEE10AF1EE10FA09DDF0EE401AC2
:1006C00006E0B1EE400AF4EEC01AF1EE10FAF5D3EE
:1006D000521031D001EB850C9CED000AB5EEC00A3A
:1006E000F1EE10FA05DDB4EEE10AF1EE10FA09DDE3
:1006F00006E0B1EE400AF4EEC01AF1EE10FA01D2B3
:10070000F0EE401A01EBC50191ED000AB5EEC00A0A
:10071000F1EE10FA05DDB4EEE10AF1EE10FA09DDB2
:1007200006E0B1EE400AF4EEC01AF1EE10FA01D282
:10073000F0EE401A521ECDD1F5EEC01AF1EE10FACD
:1007400000F07381F5EEC02A0126F1EE10FA00994F
:10075000D4BFB1EE620AB0EE620AB4EE610AF1EE05
:1007600010FA1CBFAEEB0802B2F1010C47D005FB3A
:1007700008F201EB820292ED001A00BFB0EE410ACE
:1007800005FB06F4B5EEC00A00EB8404F1EE10FAA6
:10079000CCBFF0EE400AF1EE400AF4EE610AF1EE51
:1007A00010FA28D1B5EB080C11D0BCF1004F7DD266
:1007B000BCF1000F0BDD00BF92ED000AD1ED000A85
:1007C000BCF1010CE2EC010AA1EC010AF4D1290010
:1007D0000ED0B1F1004F6AD2002909DD94ED000A74
:1007E000D0ED000A491EE4EC010AA0EC010AF5D1A3
:1007F000012002900BE0761CBCF1010CBED10298E6
:10080000012804D0F5EEC02AF1EE10FA7ED09BED5F
:10081000000AB5EB08009A465946064622D0B0F1C8
:10082000004F74D200281DDD091F10F0010F06D003
:10083000F0EE400A80EEA01A81ED011A091D401069
:1008400010D000BFD1ED010A401E80EE801A81ED6C
:10085000011A91ED021AC1EE000AC1ED020A01F17E
:100860000801EFD1280026D0B0F1004F7ED2002839
:1008700021DDAAF1040110F0010F06D0D1ED010A2B
:1008800080EE801A81ED011A091D401013D000BFBF
:10089000D1ED010A401E80EE801A81ED011AD1EDE2
:1008A000020A80EE801A81ED021A01E0CBE0D6E068
:1008B00001F10801ECD1DDE900124FF000095FEA17
:1008C0000E0773D0C14504BF01EB860102EB850220
:1008D00074D091ED000ADC465046330035D01C46FA
:1008E000B6F1004F7ED2002C2FDD0B1FABF1040CB4
:1008F00016F0010F0FD0F0EE400ADCED011AB0EE59
:10090000601A00EEE11A83ED011A01E08DE0B1E01A
:100910001B1D0CF1040C741015D000BFD3ED010A9F
:100920009CED011A40EE410AC3ED010AD3ED020A23
:100930009CED021A0CF1080C40EE410AC3ED020ACC
:100940000833641EEAD101EB86012B0036D0B3F1E7
:10095000004F72D2002B31DDA2F1040CAAF1040089
:1009600013F0010F0CD0DCED010A00E08BE090EDFC
:10097000011A001D40EE410ACCED010A0CF1040CF5
:100980005C1019D0DCED010A90ED011A40EE410A2D
:10099000CCED010ADCED020A90ED021A083040EEBF
:1009A000410ACCED020A03E0000000000DE005E082
:1009B000641E0CF1080CE5D102EB830201EB880107
:1009C0007F1E09F101097FF47DAF009808F101084D
:1009D000001D00900398401E03907FF44BAE0299D7
:1009E000012900E058E004BF06B0BDE8F08F00BF69
:1009F000B5EEC00AF1EE10FA7FF4E9AD04990EFBF2
:100A000005F3002B4A684FF000010BD902EB810C73
:100A10009CED000AB5EEC00AF1EE10FA02D1491CB5
:100A20008B42F3D88B427FF4D2AD6FF00400CEE559
:100A3000E0EC010A491EFBD1EFE538E0E0EC010AE9
:100A4000521EFBD108E692ED000AD1ED000ABCF17E
:100A5000010CE2EC010AA1EC010AF4D1B7E694ED35
:100A6000000AD0ED000A491EE4EC010AA0EC010ADC
:100A7000F5D1BDE6D1ED000A401E80EE801AA1EC52
:100A8000011AF7D1EEE6D3ED000A401E80EE801A7F
:100A9000A3EC011AF7D10EE7BCEC011AD1ED000A64
:100AA0005B1E40EE410AE1EC010AF5D14DE7B0ECE6
:100AB000011AD2ED000A5B1E40EE410AE2EC010A87
:100AC000F5D17BE72DE9F04F82B04668536801937A
:100AD000058847884B88002000900888874201BF1E
:100AE000B2F800C06545528893421EBF6FF0020005
:100AF00002B0BDE8F08F9FED412A4FEA970EC7F391
:100B0000400B00BFDDE9000202EB800A4A6898460C
:100B10004FF00009B0EE420AB4465FEA0E0025D05D
:100B200092ED001ADCED001A02EB8302DCED010A03
:100B300001EE810A92ED001A02EB8302401ED2ED13
:100B4000001A02EB830200EE810A9CED021ADCED32
:100B5000030A00040CF1100C000C01EE210A92EDC6
:100B6000001A02EB830200EE810AD9D117F00300CC
:100B700026D0ACF10404A2EB830210F0010F08D0E0
:100B800002EB8302D4ED010A92ED001A241D00EE5F
:100B9000810A5FEA0B0013D002EB830CD4ED010A4B
:100BA0009CED001A02EBC302401E00EE810AD4ED58
:100BB000020A92ED001A04F1080400EE810AEBD15A
:100BC00009F10100AAEC010A1FFA80F9486800EB5C
:100BD0008902A8F101001FFA80F8B8F1000F99D13D
:100BE000009806EB8706184480B20090681E050442
:100BF0002D0C87D102B00020BDE8F08F000000006E
:100C000070B405880E884468D1F804C05368B542B2
:100C100008D140884988884201BF11888D42518897
:100C2000884203D070BC6FF00200704705FB00F1F2
:100C3000880827D094ED001ADCED000A94ED010A33
:100C4000DCED011A31EE601AD4ED020A70EE611A81
:100C50009CED020A83ED001AC3ED011A94ED031A0C
:100C6000DCED031A30EEC00A401E71EE610A83ED1E
:100C7000020A04F11004C3ED030A03F110030CF19E
:100C8000100CD7D111F0030030D0B0F1004F30D2AA
:100C900000282BDD211F1B1FACF1040210F0010FF7
:100CA0000AD091ED010AD2ED010A091D121D30EEA4
:100CB000600A83ED010A1B1D400817D091ED010A5F
:100CC000D2ED010A401E30EE600A83ED010A91ED7B
:100CD000020AD2ED020A01F1080102F1080230EE27
:100CE000600A83ED020A03F10803E7D170BC00201B
:100CF0007047B4EC010A401EFCEC010A30EE600AB9
:100D0000A3EC010AF5D1F1E72DE9F04F028847681D
:100D1000B0F802804888D1F8049082B04FF0000A01
:100D20001646824207BF098888456FF0020002B06C
:100D300018BFBDE8F08F4FEA980B02EB420001901C
:100D4000C8F34000CDF8000009EB8A01BBF1000FA9
:100D500033D0019801EB820C01EB80043B46E64660
:100D600001EBC2054FEA0B0093ED000A401E81ED36
:100D7000000A93ED010A01EB02118CED000A93EDDC
:100D8000020A0CEB021C85ED000A93ED030A05EB49
:100D9000021584ED000A04EB021403F11003E3D101
:100DA0000EEB820000EB820000EB8201ABF1010050
:100DB000504307EB0B1701EB001118F0030C21D087
:100DC0003B1FA1EB82011CF0010F06D093ED010A3D
:100DD00001EB82011B1D81ED000A009880B100BF6C
:100DE00093ED010A01EB820401EBC20184ED000ADC
:100DF00093ED020A401E81ED000A03F10803EFD1D2
:100E000007EB8C070AF101001FFA80FA701E060436
:100E1000360C99D102B00020BDE8F08F70B50646BF
:100E200000F08CFA056806F10B0020F00704B442CC
:100E30009CBF002070BD2B466A68BAB11068A04202
:100E400010D304F1080188423CBF5068586007D3B2
:100E50005168101941601168091B016058601460E5
:100E6000101D70BD13465268002AE7D1214628465E
:100E700000F06CFA0028DED170BD70B50446051F85
:100E800000F05CFA0068002C14BF446870BD002CB0
:100E900018BFAC423CBF20466468F8D301680A180A
:100EA000AA4218BF456003D12A6805461144016073
:100EB00028684119A1421CBF6C6070BD61686960FF
:100EC00021680844286070BD53EA020C00F0698074
:100ED0002DE9F04B4FF00006002B1FBFB3FA83F54E
:100EE00003FA05F424FA05F65E4012BF1643B2FA7F
:100EF00082F502FA05F4C5F120051EBF22FA05FCB1
:100F000044EA0C04203556EA044C4FEA144418BF56
:100F1000641C4FF000084FF00009904271EB030C85
:100F200039D3002919BFB1FA81F701FA07F6B0FAEF
:100F300080F700FA07F6C7F120071EBF20FA07FC6A
:100F400046EA0C062037B6FBF4FCA7EB0507103F7A
:100F500007F01F0BCBF120060CFA0BFB2CFA06F660
:100F600044BFB3460026202FA4BF5E464FF0000BBF
:100F70005BEA060C08BF4FF0010B19EB0B09ABFB4A
:100F8000027C48EB0608C01B06FB02CC0BFB03CC23
:100F900071EB0C01C1E70B46024641464846BDE8ED
:100FA000F08B13B54FF000004FF00001AFF300805D
:100FB000BDE81C40704700000FB41CB5074B06AAE3
:100FC0007B4469460090059800F083FC0020694648
:100FD00000F092FC1CBC5DF814FB00003509000019
:100FE0002DE9F0410646002410687529314616A502
:100FF00010D0AFF30080002802DA404213A507E0CA
:1010000031688A0701D512A502E0490704D511A568
:10101000012401E0AFF3008000210A2206F1240739
:1010200009E0B0FBF2FCB0FBF2F302FB1C00303035
:1010300078541846491C0028F3D123462A463046E6
:10104000BDE8F04100F0D7B9000000002D0000001D
:101050002B000000200000002DE9F0474FF0000AAF
:1010600089460446C0F820A02046E1688847002849
:1010700076D0252806D0D4E901219047206A401C6B
:101080002062F1E7E168204600258847C4F81CA0EB
:1010900006460027C4F818A02A2E09D030460BF0C7
:1010A00010FE38B304EB8708303EC8F8186019E02A
:1010B00059F8041B204604EB87029161E1688847D8
:1010C000012F064618D1E069002820DA25F0200516
:1010D0001DE0D8F8180000EB800006EB4000303827
:1010E000C8F818002046E168884706460BF0E9FD7D
:1010F0000028EED1012F0AD02E2E08D12046E1681B
:1011000088477F1C0646022F45F02005C4DBA069F6
:10111000002803DA404245F00105A061E80701D04C
:1011200025F01005B6B1A6F14100192802D82036E5
:1011300045F400654A463146204625604D46FFF796
:1011400081F858B1012806D0ED1D25F0070000F107
:10115000080989E704E005F1040985E730468AE7D4
:10116000206ABDE8F08710B5431C02E010F8011BAF
:1011700071B18107FAD14FF0013202C88C1A8C4349
:1011800014EAC211F9D0C01A0A0603D0C01E10BD5D
:10119000C01A10BD0A0401D0801E10BD0902FCD087
:1011A000401E10BD032A40F2308010F0030C00F006
:1011B000158011F8013BBCF1020F624498BF11F891
:1011C00001CB00F8013B38BF11F8013BA2F104024A
:1011D00098BF00F801CB38BF00F8013B11F00303C2
:1011E00000F02580083AC0F0088051F8043B083A26
:1011F00051F804CBA0E80810F5E7121D5CBF51F8C8
:10120000043B40F8043BAFF30080D20724BF11F841
:10121000013B11F801CB48BF11F8012B24BF00F8A6
:10122000013B00F801CB48BF00F8012B704710B517
:10123000203AC0F00B80B1E81850203AA0E81850CE
:10124000B1E81850A0E81850BFF4F5AF5FEA027C8F
:1012500024BFB1E81850A0E8185044BF18C918C0FE
:10126000BDE810405FEA827C24BF51F8043B40F89F
:10127000043B08BF7047D20728BF31F8023B48BF84
:1012800011F8012B28BF20F8023B48BF00F8012BC2
:10129000704702F0FF0343EA032242EA024200F0F1
:1012A00002B84FF000020429C0F0128010F0030CC5
:1012B00000F01B80CCF1040CBCF1020F18BF00F849
:1012C000012BA8BF20F8022BA1EB0C0100F00DB8F8
:1012D0005FEAC17C24BF00F8012B00F8012B48BF56
:1012E00000F8012B70474FF0000200B513469446FA
:1012F0009646203922BFA0E80C50A0E80C50B1F16E
:101300002001BFF4F7AF090728BFA0E80C5048BF81
:101310000CC05DF804EB890028BF40F8042B08BF1F
:10132000704748BF20F8022B11F0804F18BF00F81B
:10133000012B7047704770477047000000487047A6
:10134000A8950020704770477047704738B504462D
:101350000A4600206946AFF30080002808BF38BD68
:1013600002460099204600F0D9FA012038BD01203C
:1013700000F0FEBBF8B5AFF30080054600200C4638
:10138000102000BF0646A819A0420DD93246694672
:101390000020AFF30080070008BF00F0E9FB0098D1
:1013A000A04218BF0546C419FFF7C8FF05600746ED
:1013B000F01D20F007004619284600F00AF8B44254
:1013C00008BFF8BDA21B31463868BDE8F84000F000
:1013D000A5BA00210160C0E90110704710207047D4
:1013E00010B500F097FA006810BD10B5044600F083
:1013F00091FA046010BD2DE9F0470D4699469246DA
:10140000044600F124080168880604D5E06921F04B
:101410001001216000E00120A84201DD471B00E02F
:101420000027A1697A1902EB0900081AA061207847
:10143000C00602D42046AFF30080002608E0D4E9BD
:1014400001211AF806009047206A401C761C206291
:101450004E45F4DB2078C0060AD52046AFF3008065
:1014600006E0D4E9012130209047206A401C206228
:10147000381EA7F10107F4DC07E0D4E9012118F8D0
:1014800005009047206A401C2062281EA5F1010536
:10149000F3DC2046AFF300802078000602D502205E
:1014A000BDE8F0870120FBE770472DE9FF4F0C46B0
:1014B0001E464FF0FF378BB0D2E90001DDF86080A7
:1014C0000A908A46C1F30A5505B93D4600210846EF
:1014D00012F02EF9BAF1000F00F4400005DA00EB2B
:1014E00080004FF4400101EA50004FEA9059B9F1F1
:1014F000010F00DDB9460A9850EA4A000ED044F6C2
:101500001050A5F2FF3545432F14B8F1000F1ED03F
:101510007542291E1EDDC9F100021CE0B8F1010F61
:101520004FF0000001D0302103E0F24305E02154E8
:10153000401CB042FBDB30460022002121540B99B5
:10154000C1F80880C1E900200FB0BDE8F08FBD1BD5
:101550006D1CDEE74A4600DA694206A800F096FAFA
:1015600006AB93E8070003AB83E8070050460A99EF
:1015700000F025FC8DE80700A0F500501F38009012
:101580000398002D0ADD42F21F014A460844002359
:1015900003A90390684600F08EFE09E0A0F5005014
:1015A0004A461F38002303A90390684600F098FEBE
:1015B0008DE807000004000C03D04FF0FF30410815
:1015C00000E01046B8F1000F03D00022009215464B
:1015D0001EE0751E05D400F0BBF9303262556D1E59
:1015E000F9D5B3460122084302D000227F1C04E053
:1015F0002078302801D100227F1E002A099784D04C
:101600001DE0112D07DA00F0A3F9303262556D1C90
:1016100050EA0102F5D1084302D00098C8B10EE0AB
:101620000021681E05E0235C625C63542254401E66
:10163000491C8142F7DBAB46A81B401E09900020E5
:1016400004F80B000B98099AC0F80880C0E9002B39
:101650007AE711264FF0000857E72DE9F04F88464A
:101660000446D21D22F0070191B0D1E90001CDE975
:101670000A010BF031F802460B98C00F01D02D2063
:1016800007E02068810701D52B2002E0202101EA34
:10169000C000032A099001D0072A05DB0346414612
:1016A000204600F0B3F90BE12078800601D5E0690F
:1016B00000E00620B8F1650F814606D0B8F1660F4C
:1016C00018D0B8F1670F70D131E00020B9F1110FD7
:1016D000009001DB112301E009F101030AAA01A92D
:1016E0000CA8FFF7E2FEDDE90C70002609F1010508
:1016F000834647E001204B4600904FF000470AAA7E
:1017000001A90CA8FFF7D1FEDDE90DB00C995D46EB
:10171000002610B909F101000D18B9EB050003D43A
:10172000C0F1FF3609F10105A5EB09002BE0B9F185
:10173000010F01DA4FF001090020B9F1110F0090FB
:10174000484601DD112300E003460AAA01A90CA8BE
:10175000FFF7ABFEDDE90C704D460026834620788E
:1017600000070AD4AB4500DA5D4601A8012D04DD6F
:10177000411911F8011C302907D04F4502DA17F141
:10178000040F04DA012082460FE06D1EEEE7002F01
:1017900002DCED1B3E4403E0781CA84200DD7D1C0A
:1017A000B81B00F1010A4FF000472078000703D46E
:1017B000AA4501DB4FF0FF3A0021B7F1004F0DF1D0
:1017C00043088DF8431024D002202B23002F01DA88
:1017D0007F422D230A21021EA0F1010000DC5FB12F
:1017E00097FBF1FC97FBF1F201FB1C7C17460CF117
:1017F000300C08F801CDEEE7A8F101000370218854
:10180000090501D5452100E06521A0F1010800F896
:10181000011C09980FA9A1EB0807FF1D00B10120C9
:10182000411901EBEA70A1693844081A401EA06111
:101830002078C00602D42046AFF30080099828B172
:10184000D4E901219047206A401C20622078C0061C
:1018500022D52046AFF300801EE0002E04DBB34506
:1018600002DD01A8805D00E03020D4E9012190472D
:10187000206A401C2062761CAAF101005FEA000A7F
:101880000AD100F043F8C0680168405CD4E9012146
:101890009047206A401C2062281EA5F10105DCDC6F
:1018A00007E0D4E9012118F8010B9047206A401C99
:1018B0002062381EA7F10107F3DC2046AFF3008059
:1018C000032011B041E6000001694A1C026108785A
:1018D000704700B58FB0CDE9013100210591054970
:1018E0007944CDE9031011466846FFF7B5FB0FB008
:1018F00000BD0000E5FFFFFF0A6802F8010B0A6067
:101900007047000000487047A095002000487047CD
:10191000C095002000487047A0950020034640680D
:101920008C46002818BF88423CBF03464068F8D365
:1019300018681844884207D00CF1030020F0070013
:10194000001D411A521A0146081D0A60FFF795BA98
:1019500030B5B0F10A024FEA900E71F100034EEA81
:10196000817EB0EB0E0061EB91014FEA101E4EEA52
:10197000017E10EB0E0041EB11114FEA102E4EEAE2
:10198000016E10EB0E0041EB11214FEA104E4EEAB2
:10199000014E10EB0E0041EB1141401841F10001E6
:1019A0004FEAD00040EA41704FEAD10110EB8005C8
:1019B0004FEA810444EA907444EB01046D1944EB4E
:1019C0000404521BA3414FF0000348BF0A3200D564
:1019D00030BD401C41F1000130BD00001FB584B096
:1019E00000200A9C06AB04AA02A90094AFF3008071
:1019F00018B1DDE9020108B010BD0348204000F035
:101A0000F2F800200146F6E70000207C2DE9F041C5
:101A10001F46044603260168072A01F4006004DB20
:101A200008B116A505E016A503E008B115A500E06C
:101A300015A521F010002060A069C01EA0610FB1A3
:101A4000401EA0612046AFF300804FB1D4E90121D0
:101A500038469047206A401C2062C01C206206E085
:101A6000206AFAE7D4E9012115F8010B9047761EA8
:101A7000F8D22046AFF30080BDE8F0814E414E0021
:101A80006E616E00494E4600696E66002DE9F047B2
:101A9000814616468AB0354878440DC88DE80D0059
:101AA00032487844801C03AC0DC884E80D0041F630
:101AB0009B300844372190FBF1F290FBF1F5A5F142
:101AC000800501FB12041B3C02D56442012000E0AA
:101AD0000020DFF898A080460027FA44AAF1BE0A49
:101AE0000EE0E0070AD03246684607EB47010123C3
:101AF0000AEB810100F0F4FB8DE8070064107F1C05
:101B0000002CEED1194F7F44AE3F19E0E80715D005
:101B100007EB04100DF1180A90E80E008AE80E0099
:101B2000C068F04201D1981908903246012306A9F5
:101B300003A800F0D5FB03AB83E807006D10641C1D
:101B4000002DE3D14FF0010332466946B8F1000F92
:101B500003A802D000F0AFFB01E000F0C1FBC9E92F
:101B60000001C9F808200AB0BDE8F087A42B0100E5
:101B700010B500F03FF8BDE8104000F02FB87047F6
:101B80007546FFF7BFFEAE4605006946534620F096
:101B90000700854618B020B5FEF7ECFBBDE82040F5
:101BA0004FF000064FF000074FF000084FF0000B19
:101BB00021F00701AC46ACE8C009ACE8C009ACE8CC
:101BC000C009ACE8C0098D46704710B50446AFF3B4
:101BD00000802046BDE81040FEF757BB002801D02A
:101BE00000F070B8704710B500F08CF8BDE81040F8
:101BF000FFF7F4BF10B5012805D0002103A000F0C5
:101C000067F8012010BD09A1F8E7000053494752C9
:101C1000544D454D3A204F7574206F6620686561BC
:101C200070206D656D6F7279000000003A20486584
:101C30006170206D656D6F727920636F727275705F
:101C4000746564004FF0013C50F8042B51F8043BDC
:101C50009A4221D1A2EB0C03934313EACC1317D180
:101C600050F8042B51F8043B9A4215D1A2EB0C0317
:101C7000934313EACC130BD150F8042B51F8043BD7
:101C80009A4209D1A2EB0C03934313EACC13DBD0A5
:101C90004FF00000704700BFD01A01BAB1FA81F1CD
:101CA00001F0180122FA01F0CB40C1F12001DBB2B2
:101CB000C0B2C01A2CFA01F3D11A914311EAC31130
:101CC000E6D1704701491820ABBEFEE726000200AE
:101CD00070B505460C460A2000E06D1C00F068F85F
:101CE00035B128780028F8D102E0641C00F060F8D3
:101CF00014B120780028F8D1BDE870400A2000F027
:101D000057B8000010B5022803D0410103D50DA13A
:101D100012E0002010BD010101D50FA10CE0C100AF
:101D200001D511A108E0810001D512A104E0400015
:101D300001D513A100E0002115A0FFF7C9FF012084
:101D400010BD0000496E76616C6964204F70657249
:101D50006174696F6E0000004469766964652042B1
:101D600079205A65726F00004F766572666C6F77E6
:101D700000000000556E646572666C6F77000000AD
:101D8000496E657861637420526573756C740000E8
:101D90005349474650453A2041726974686D6574ED
:101DA000696320657863657074696F6E3A2000001E
:101DB00008B569468DF800000320ABBE08BD5FEA98
:101DC000400C08BF91F0000F4FEA8C234FEAC1226C
:101DD00043EA51514FEA1C5018BF00F5F0404FEA5A
:101DE000300018BF41F000415FEA6C5C00F02980D0
:101DF000BCF1FF3F08BF40F080407047130C06BFA6
:101E000012044FF0100C4FF0000C130E04BF12021E
:101E10000CF1080C130F04BF12010CF1040C930F0A
:101E200004BF92000CF1020CD30F04BF52000CF15E
:101E3000010C11464FF00002A0F11F00A0EB0C00B6
:101E4000704711F0004F08BF704731F000413FF478
:101E5000D5AF0B0C06BF09044FF0100C4FF0000C6F
:101E60000B0E04BF09020CF1080C0B0F04BF090193
:101E70000CF1040C8B0F04BF89000CF1020CCB0F8A
:101E800004BF49000CF1010CCCF12003A0EB0C00C5
:101E900022FA03F302FA0CF241EA030100F1010015
:101EA000704720F07F4C80EA030023F07F47ACEBC3
:101EB000070303F57C5300F0004003F1FF032DE915
:101EC00080494FEA154B09B44FEA144325EA0B4EFB
:101ED00024EA03480FF2042606EB132749083E784C
:101EE0005FEA320203FB0667C7F5000707FB06F649
:101EF0004FEA54374FEAD64606F1020607FB066C56
:101F0000CCF1005C4FEA1C472CEA074C07FB06F4B7
:101F10000CFB06F504EB15464FEA961634BF00207D
:101F20004FF000404FEAD13706FB07FC4FEA1C4C4C
:101F30000CFB0BF7D21B03FB0CF761EB07010CFB4F
:101F40000EF7B0EB074072EB17420CFB08F734BFFB
:101F5000A2EB0742B2EB074261EB17414FEA0C4498
:101F60004FEA910706FB07FC4FEA1C4C0CFB0BF7F2
:101F7000B0EBC74072EB573203FB0CF734BFA2EB58
:101F8000C742B2EBC74261EB57310CFB0EF7B0EB27
:101F9000C70072EB57720CFB08F734BFA2EBC70205
:101FA000B2EBC70261EB5771039F4FEA816141EACF
:101FB000921104EBCC044FEAD1374FEA826206FB60
:101FC00007FC42EA90124FEA80604FEA1C4C0CFB7F
:101FD0000BF7D21B03FB0CF761EB07010CFB0EF7B1
:101FE000B0EB074072EB17420CFB08F734BFA2EBD3
:101FF0000742B2EB074261EB17414FEA8C554FEABB
:10200000910704EB9C2406FB07FC4FEA1C4C0CFBDD
:102010000BF7B0EBC74072EB573203FB0CF734BF42
:10202000A2EBC742B2EBC74261EB57310CFB0EF794
:10203000B0EBC70072EB57720CFB08F734BFA2EB92
:10204000C702B2EBC70261EB577115EB4C254FEAA3
:10205000816141EA92114FEA82624FEAD13742EA46
:10206000901206FB07FC44F100044FEA80604FEA3F
:102070001C4C0CFB0BF7D21B03FB0CF761EB0701AD
:102080000CFB0EF7B0EB074072EB17420CFB08F7A6
:1020900034BFA2EB0742B2EB074261EB174115EBED
:1020A0001C154FEA813141EA92414FEA823242EAFD
:1020B00090424FEA80304FEA0C7644F1000448EA3F
:1020C00003434EEA0B484FF0000EB2EB080C71EBE5
:1020D000030724BF624639464EEB0E0E4FF0000B4D
:1020E0000018524149414BEB0B0BB2EB080C71EB62
:1020F00003077BF1000B24BF624639464EEB0E0E00
:102100004FF0000B0018524149414BEB0B0BB2EB67
:10211000080C71EB03077BF1000B24BF62463946C4
:102120004EEB0E0E51EA020718BF46F0010616EB01
:102130000E7655F1000254F1000103D5BDE8890186
:10214000BDE80088BDE88901BDE80048B6195241E4
:1021500041EB0101A3F10103704780807F7E7D7C0C
:102160007B7A7978777676757473727171706F6E29
:102170006E6D6C6C6B6A6A696868676666656464D4
:10218000636362616160605F5F5E5E5D5D5C5C5B5E
:102190005B5A5A59595858575756565555555454CD
:1021A000535352525251515050504F4F4F4E4E4D2B
:1021B0004D4D4C4C4C4B4B4B4A4A4A494949484877
:1021C00048474747474646464545454444444443B7
:1021D00043434342424242414141002B9C4630D45A
:1021E00077002BD01CB54FEA370703B44FF010002F
:1021F0004FF01001BAF1000F06D0BCF1000FDCBFA8
:1022000040F0080040F0080111F092FA0FBCBDE860
:1022100010400BF1010BBBF1010F08BF5FEA17077C
:1022200022BF12F1010211F101014FF0004143F10F
:10223000000300F0004043EA00007047F9D357085C
:10224000D0E746EA064613F1400F4FEA16461FDD77
:1022500013F1200FDFBF16430A46002120335B42F3
:10226000BED0C3F1200746EA064602FA07F74FEA56
:10227000164646EA0706C3F1200722FA03F201FADE
:1022800007F721FA03F14FF0000342EA0702A7E73C
:1022900046EA020646EA06464FEA164646EA0106BE
:1022A000BCBF46EA0646360C4FF000034FF0000272
:1022B0004FF0000194E72DE9804C9A46934670B4A4
:1022C00091E8380007C831EA400C48BF34EA430CB3
:1022D00003D5FFF7E6FDFFF780FFF0BCBDE8008CFB
:1022E0002DE9804C9A46934670B491E8380007C8AF
:1022F00010F0804F08BF13F0804F03D100F005F8B5
:10230000FFF76BFFF0BCBDE8008C20F07F4780EA50
:10231000030023F07F4C07EB0C03A3F57C5300F084
:102320000040A3F1FE0392F0000F00F0B38095F09F
:10233000000F00F077802DE901494FEA11404FEA84
:10234000144621EA004800FB06FC24EA064708FB85
:1023500006F607FB08F800FB07F718EB06484CEBFE
:10236000164C4FEA124B18EB07484FEA15464CEB58
:10237000174022EA0B4E0BFB06FC25EA06470EFB34
:1023800006F607FB0EFE0BFB07F71EEB064E4CEBAB
:10239000164C4FF000061EEB074E4CEB174B18EB9C
:1023A0000B0840F1000018EB0E0B58EB000840F151
:1023B00000008F1A4FF000013CBFC943661B14BFD9
:1023C000B5EB040C00213CBFC943F61B4FEA174490
:1023D0004EEA8E0E27EA04454FEA1C4704FB0762CB
:1023E0002CEA074C05FB07F70CFB05F604FB0CFC7D
:1023F00016EB074642EB174216EB0C4642EB1C422B
:102400001BEB060658EB0202414146EA9E0601D547
:10241000BDE80189B619524141EB0101A3F1010365
:10242000BDE801894FEA14454FEA114724EA054601
:1024300021EA074C05FB07F406FB07F70CFB06F146
:1024400005FB0CFC11EB074144EB17444FEA124724
:1024500011EB0C4144EB1C4422EA074C05FB07F24C
:1024600006FB07F70CFB06F605FB0CFC16EB074614
:1024700042EB174216EB0C4642EB1C456A1854F12E
:10248000000148BF7047B619524141EB0101A3F169
:102490000103704795F0000F37D04FEA11424FEA21
:1024A000144721EA024624EA074C02FB07F106FB27
:1024B00007F70CFB06F402FB0CFC14EB074441EBA2
:1024C00017414FEA154714EB0C4441EB1C4125EA38
:1024D000074C02FB07F506FB07F70CFB06F602FBB1
:1024E0000CFC16EB074645EB174516EB0C4645EB87
:1024F0001C42121951F1000148BF7047B6195241F0
:1025000041EB0101A3F1010370474FEA14454FEA83
:10251000114724EA054621EA074C05FB07F106FBB3
:1025200007F70CFB06F24FF0000605FB0CFC12EB64
:10253000074241EB174112EB0C4251EB1C4148BFE3
:102540007047921841EB0101A3F1010370470000AD
:1025500010B501221021024802F068FF10BD0000F2
:102560000000024010B500221021024802F05EFF78
:1025700010BD00000000024010B5012211460248C3
:1025800002F054FF10BD00000004024010B500220C
:102590000121024802F04AFF10BD00000004024081
:1025A00010B50446FFF7DEFF922000F0A3F90622E3
:1025B0009549122000F07EF9FFF7CAFF9248407853
:1025C000000200B290490978084390490880084603
:1025D000B0F9000000EE100AB8EEC00A8C48D0ED49
:1025E000000A20EE200AD4ED080A20EE200A84ED2D
:1025F000000A8548C078000200B283498978084300
:10260000824908800846B0F9000000EE100AB8EED2
:10261000C00A7F48D0ED000A20EE200AD4ED080A57
:1026200020EE200A84ED010A77484079000200B2CA
:10263000754909790843754908800846B0F90000D2
:1026400000EE100AB8EEC00A7148D0ED000A20EE84
:10265000200AD4ED080A20EE200A84ED020AFFF7D2
:1026600095FF08226849002000F024F9FFF784FF55
:10267000654800780F284FD166480078F0B362486B
:10268000C078000200B26049897808435F49088039
:1026900094ED090A0846B0F9000000EE900AF8EE41
:1026A000E00A5D4890ED001A10EE810A84ED030AFD
:1026B00055484079000200B253490979084353490B
:1026C000088094ED0A0A0846B0F9000000EE900A6E
:1026D000F8EEE00A504890ED001A10EE810A84ED01
:1026E000040A4948C079000200B247498979084381
:1026F0004649088094ED0B0A084600E00DE0B0F969
:10270000000000EE900AF8EEE00A434890ED001A4F
:1027100010EE810A84ED050A44E03B48C0780002CF
:1027200000B2394989780843384908800846B0F929
:10273000000000EE100AB8EEC00A3748D0ED000ADB
:1027400020EE200A84ED030A2F484079000200B2EF
:102750002D49097908432D4908800846B0F9000041
:1027600000EE100AB8EEC00A2B48D0ED000A20EEA9
:10277000200A84ED040A2448C079000200B22249EC
:1027800089790843214908800846B0F9000000EE25
:10279000100AB8EEC00A2048D0ED000A20EE200A48
:1027A00084ED050AFFF7DEFEA22000F0A3F8022266
:1027B0001549222000F07EF8FFF7CAFE1248007883
:1027C000C0001149497840EA611010490880084664
:1027D000B0F90000B0F5806F05DB08460088A0F571
:1027E000006000B208800948B0F9000000EE100A4D
:1027F000F8EEC00AB4EE001AB3EE070A00EE810A42
:1028000084ED070A10BD0000920300209A03002007
:1028100054030020640300205803002070B50446D0
:102820000D461C48046000201B4908700AF050FA4D
:10283000194909780843184908700AF0FFFA16493F
:1028400009780843144908701DB1144800F016FABD
:102850001CE09FED130A114880ED090A9FED110A53
:1028600080ED0A0A9FED0F0A80ED0B0A9FED0E0A1C
:1028700080ED0C0A90ED0C0ADFED0C0A80EE801A58
:1028800080ED081A9FED0A0A80ED060A02480078DA
:1028900070BD00009C0300205E030020942E0020E9
:1028A000AC38223BB016CE393F161B41C3F51C4154
:1028B0000000204270B506460C46154646F08000E2
:1028C00000F018F806E0552000F014F82070641CA1
:1028D000681EC5B2002DF6D170BD70B504460D4618
:1028E00044F0800000F006F8552000F003F828704E
:1028F00070BD000001B582B04FF47A70012301AAC7
:1029000002A900900348006804F0EAF99DF8040069
:102910000EBD00009C03002070B505460C462846FD
:10292000FFF7E8FF2046FFF7E5FF70BDD2ED020A92
:1029300092ED021AB6EE000A00EEC10AD2ED030AC9
:1029400092ED031A00EEC10AD0ED000A20EE200A33
:10295000D2ED010A92ED021A60EE810A92ED001AA0
:10296000D2ED031A41EE610A90ED011A00EE810AE0
:10297000D2ED010A92ED031A60EE810A92ED001A7F
:10298000D2ED021A41EE210A90ED021A00EE810A00
:10299000F0EE000A20EE200A81ED000A92ED010A15
:1029A000D2ED020A20EE200AD2ED000A92ED031ABF
:1029B00000EE810AD0ED000A60EE200A92ED011AC5
:1029C000D2ED011AB6EE000A01EE610AD2ED031A49
:1029D00092ED032AB0EE401A01EEC21AD0ED011AB0
:1029E000B0EE600A01EE210AD2ED020A92ED031A5E
:1029F00060EE810A92ED001AD2ED011A41EE610AF1
:102A000090ED021A00EE810AF0EE000A20EE200A94
:102A100081ED010A92ED010AD2ED030A20EE200AAF
:102A2000D2ED000A92ED021A00EEC10AD0ED000AC2
:102A300020EE200AD2ED020A92ED031A60EE810A1E
:102A400092ED001AD2ED011A41EE210A90ED011A21
:102A500000EE810A92ED011AD2ED011AF6EE000A9B
:102A600041EE610A92ED021AD2ED021A41EE610ABC
:102A700090ED021A00EE810AF0EE000A20EE200A24
:102A800081ED020A7047000010B52DED0A8B8AB067
:102A9000304890ED1E0AD0ED1D0A30EE600A2E4837
:102AA00080ED000A2D4890ED1E0AD0ED1D0A30EE93
:102AB000600A2B4880ED000A2A48006810F0DAFC12
:102AC00041EC180B2648006810F0D4FC41EC190BBF
:102AD0002148006810F0CEFC41EC1A0B1D4890ED27
:102AE0000B0A10EE101A084610F0C4FC41EC1B0B48
:102AF0001A4890ED0B0A10EE101A084610F0BAFCB6
:102B000041EC1C0B1848007818490978CDE90810E9
:102B10008DED068B8DED049B8DED02AB8DED00BB35
:102B200053EC1C2B12A11A48FEF746FA19480078FC
:102B300001280BD11648FEF716FB84B22246144931
:102B4000154805F0FBF80020124908700AB0BDECEA
:102B50000A8B10BDDC1A0020A80000208021002074
:102B6000AC000020A003002038020020FC0100205F
:102B7000252E32662C252E32662C252E32662C25EB
:102B80002E32662C252E32662C25642C25640A00F4
:102B9000AA1A0020A0000020E010002000BFFEE7DD
:102BA00010B5024801F031FC10BD0000E40B00201C
:102BB00010B5024801F029FC10BD00000C0C0020EB
:102BC00038B504464FF4007008490860002088605A
:102BD000C86008200861200A054908704C706B46DF
:102BE0000A460249034801F048FA38BDC8190020D6
:102BF00088000020E40B0020F8B507460C46154677
:102C00001E4640F2FF100D49086000208860C86031
:102C100008200861380A0A4908704F70200A887035
:102C2000CC70280A08714D71300A8871CE716B46DC
:102C30000A460249034801F020FAF8BDB019002005
:102C4000800000200C0C002010B5082A13D14B780E
:102C50000C7843EA04231BB200EE103AB8EEC01A17
:102C6000DFED051AC1EE210AB0EE0C1A60EE810A02
:102C7000C0ED030A00BF10BD00FEFF4670B52DED8C
:102C8000048B88B0044600200690079001F05AF8A3
:102C9000FE4880ED000A00BF01F054F8FB48D0ED7B
:102CA000000A30EE600AF2EE040AB4EEE00AF1EE39
:102CB00010FA14DD9FEDF60A84ED090A9FEDF50A7E
:102CC00084ED0A0A9FEDF30A84ED0B0A9FEDF20AE8
:102CD00084ED0C0A9FEDF10A84ED060A55E29FEDA2
:102CE000F00A00F0EBFF9FEDEF0A84ED0C0A9FED78
:102CF000ED0A84ED090A9FEDEB0A84ED0A0A9FEDC7
:102D0000E90A84ED0B0A002673E1FFF72BFC922001
:102D1000FFF7F0FD062206A91220FFF7CBFDFFF713
:102D200017FC9DF81900000200B29DF8181040EA47
:102D3000010500EE105AB8EEC00ADB48D0ED000ADB
:102D400020EE200A84ED000A9DF81B00000200B26C
:102D50009DF81A1040EA010500EE105AB8EEC00ABC
:102D6000D148D0ED000A20EE200A84ED010A9DF83A
:102D70001D00000200B29DF81C1040EA010500EEA3
:102D8000105AB8EEC00AC848D0ED000A20EE200A5A
:102D900084ED020AD4ED000A60EEA00A94ED011A57
:102DA000D4ED011A41EE210A94ED021AD4ED021A73
:102DB00041EE210AB0EE600A09F04DFFB0EE408A04
:102DC00094ED0C0A30EE080A84ED0C0AFFF7DEFBE6
:102DD000082206A90020FFF76DFDFFF7CDFB9DF847
:102DE00018000F2850D19DF81B00000200B29DF87A
:102DF0001A1040EA010500EE105AB8EEC00AAB48BE
:102E0000D0ED000A20EE200A84ED030A94ED090AB1
:102E1000D4ED030A30EE200A84ED090A9DF81D0066
:102E2000000200B29DF81C1040EA010500EE105AA5
:102E3000B8EEC00A9D48D0ED000A20EE200A84EDCD
:102E4000040A94ED0A0AD4ED040A30EE200A84ED57
:102E50000A0A9DF81F00000200B29DF81E1040EA09
:102E6000010500EE105AB8EEC00A9048D0ED000AF5
:102E700020EE200A84ED050A94ED0B0AD4ED050A34
:102E800030EE200A84ED0B0A06BBF0EE488AB0EE65
:102E9000489A002017E004F10C0101EB800191ED4C
:102EA000000A03A901EB800181ED000A04F10C0185
:102EB00001EB800191ED000A694601EB800181ED93
:102EC000000A411CC8B20328E5DB49E0B4EEE88AF9
:102ED000F1EE10FA01DDF0EE488AB4EEC98AF1EEA7
:102EE00010FA01D2B0EE489A002037E004F10C014C
:102EF00001EB800191ED000A03A901EB8001D1ED06
:102F0000000AB4EEE00AF1EE10FA0ADD04F10C0159
:102F100001EB800191ED000A03A901EB800181ED35
:102F2000000A04F10C0101EB800191ED000A6946F1
:102F300001EB8001D1ED000AB4EEE00AF1EE10FAE7
:102F40000AD204F10C0101EB800191ED000A6946FF
:102F500001EB800181ED000A411CC8B20328C5DBEA
:102F600038EEC90A524880ED000A002012E003A999
:102F700001EB800191ED000A694601EB8001D1ED82
:102F8000000A30EE600A4B4901EB800181ED000A36
:102F9000411CC8B20328EADB454890ED000AF6EE72
:102FA000000AB4EEE00AF1EE10FA1BDC414890EDA5
:102FB000000ADFED410AB4EEE00AF1EE10FA11DC8E
:102FC00090ED010ADFED3C0AB4EEE00AF1EE10FAF2
:102FD00008DC90ED020ADFED380AB4EEE00AF1EE0B
:102FE00010FA00DD0AE09FED350A00F067FE701C64
:102FF00086B2334800888642FFF687AE00BFD4ED24
:103000000C0A2F48008800EE100AB8EE400A80EE45
:10301000801A84ED0C1A002015E004F1240101EB64
:103020008001D1ED000A2649098800EE101AB8EE99
:10303000400A80EE801A04F1240101EB800181ED49
:10304000001A411CC8B20328E7DBFFF78BFAA22065
:10305000FFF750FC022206A92220FFF72BFCFFF706
:1030600077FA9DF81800C0009DF8191040EA611524
:10307000B5F5806F02DBA5F5006005B200EE105AD1
:10308000F8EEC00AB4EE001A1CE000008C03002029
:10309000AC38223BB016CE393F161B41000020420F
:1030A0000AD7A33B0000000054030020580300206F
:1030B00060030020882E00209A99193E6F12033A6F
:1030C00090030020B3EE070A00EE810A84ED060AA1
:1030D00034480088401C00B232490880324890EDE4
:1030E000000AF6EE000AB4EEE00AF1EE10FA3FF73D
:1030F000D3AD94ED0C0ADFED2D0A30EE600AB0EE90
:10310000C00AF6EE000AB4EEE00AF1EE10FAEEDCC8
:10311000274890ED000A5FED180AB4EEE00AF1EEE0
:1031200010FAE4DC90ED010A5FED1D0AB4EEE00A4E
:10313000F1EE10FADBDC90ED020A5FED210AB4EE4D
:10314000E00AF1EE10FAD2DC94ED090AB0EEC00A02
:10315000DFED180AB4EEE00AF1EE10FAC7DC94EDE8
:103160000A0AB0EEC00ADFED130AB4EEE00AF1EE8F
:1031700010FABCDC94ED0B0AB0EEC00ADFED0D0ACC
:10318000B4EEE00AF1EE10FAB1DC00BF94ED0C0AE7
:10319000DFED090A80EE801A84ED081A08B0BDEC54
:1031A000048B70BD6603002060030020CDCC1C4161
:1031B000882E00200AD7233CC3F51C4100BF00F035
:1031C00057F8FCE72DE9F04104460D46164600226B
:1031D000062104F170000CF047F80022082104F1E8
:1031E000A8000CF041F8284609F05CFADFED180A57
:1031F0009FED180A184A0021304607F00BFBDFED5F
:10320000170A9FED170A174A0021174807F002FB1B
:1032100000270AE0B4F8A820AC20015B13480BF0AB
:10322000C3FD01200CF0A0FB7F1C0A2FF2DB00275E
:103230000AE0B4F870207420015B0C480BF0B4FD78
:1032400001200CF091FB7F1C0A2FF2DBBDE8F0811E
:10325000000000000000B442A83901080000C84383
:1032600000007A46B4390108202D00200C0C002003
:1032700008B502E001200CF077FB564890F890006A
:103280000028F7D00020544981F87A01534A544964
:103290005448FFF797FFDFED540A9FED540A544A54
:1032A0000021544807F0B6FA0DF0BEFB91E0494A00
:1032B0004B494C480AF09CFA0DF096FA4E490880AA
:1032C00046484E4B434A46490090464809F01EFF87
:1032D000444890F89801012849D1414890ED1E0AD0
:1032E000B0EE402ADFED461A9FED3F1ADFED3E0AB1
:1032F0009FED3D0A082143480CF0B6F942480068AA
:103300000CF032FB364890ED1D0AB0EE402ADFED9E
:103310003C1A9FED351ADFED340A9FED330A062182
:1033200038480CF0A1F9384800680CF01DFB2D4816
:1033300090ED740ADFED350A80EE201ABDEEC10A69
:1033400010EE100A01B22748A0F8C8110146B1F8E2
:10335000C811494208B200232749B1F90020194693
:10336000FFF74AFC284800680CF0FEFA31E01D48DF
:1033700090F8980168BB9FED1C2ADFED211A9FEDA4
:103380001A1ADFED190A9FED180A08211D480CF0E2
:103390006BF91D4800680CF0E7FA9FED132ADFED8A
:1033A000181A9FED111ADFED100A9FED0F0A062182
:1033B00014480CF059F9144800680CF0D5FA0023B1
:1033C0001A4619461846FFF717FC0F4800680CF01C
:1033D000CBFA6CE7E82E00200C2D002030220020D4
:1033E000802100208C1B0020000000000000B4425F
:1033F0009C3901087822002094020020500200200D
:10340000CDCC4C3F0C0C0020900200200200C039B3
:1034100000BF00F06DF8FCE72DE9F04104460E46D0
:10342000174698460BF0BEFDC4F8A0010022062105
:1034300020460BF019FF0022082104F138000BF0A0
:1034400013FF304609F02EF9DFED200A9FED200A28
:10345000204A0021384607F0DDF9002508E0228FD8
:10346000A18F1D480BF0A0FC01200CF07DFA6D1C13
:103470000A2DF4DB002508E02288A18816480BF00D
:1034800093FC01200CF070FA6D1C0A2DF4DB002572
:103490000EE005EBC50204F5207101EBC200DFED83
:1034A0000F0A9FED0F0A0F4A002107F0B3F96D1CB8
:1034B000022DEEDBDFED0C0AB2EE040A0B4A00210E
:1034C00004F50E7007F0A6F9BDE8F08100000000D9
:1034D0000000B44278390108E40B00200000FA44EF
:1034E00000007A4690390108CDCC4C3E8439010861
:1034F0002DED068B82B09FEDFE0AFE4880ED530A4B
:103500009FEDFD0A80ED4C0A9FEDFB0A80ED490A14
:103510009FEDF90A80ED480A0020F64981F89C01E8
:103520009FEDF50A084680ED4D0A0020F34981F829
:103530007A019FEDF10AEF4880ED4B0A02E001208D
:103540000CF012FAEE4890F890000028F7D0ED4BFE
:10355000ED4AEE49E748FFF75FFFED4BED4AEE49D4
:10356000EE4807F087F90DF05FFADFEDE30A9FED13
:10357000EC0AEC4A0021EC4807F04CF99FE2EB48DA
:10358000007840B9EA480088332804DCE84800881D
:10359000401CE7490880E6480088322801DCFFF734
:1035A00073FA00200DF0EAFBD24981F83402084694
:1035B000D0F8A001C07A012804D1B7EE000ADD4896
:1035C00080ED000ACB48D0F8A001C07A032804D1CE
:1035D0009FEDC90AD74880ED000AC84A92F87A11CF
:1035E000D54A92ED000ABCEEC00A10EE102AD0B205
:1035F0000B22D24BD3ED000AD14B93ED000A09F018
:1036000005FD01200CF0B0F9CE4890ED000AB8EEAF
:10361000400ADFEDCD0A80EE208AB648D0F8A0013E
:10362000807A032808D10120B24981F89801B7EEC9
:10363000000AC14880ED000AAE48D0F8A001807AA7
:10364000022808D10020AB4981F898019FEDAA0A11
:10365000B94880ED000AA748D0F8A001807A012877
:1036600003D1A44981F8B00303E00020A14981F807
:10367000B003A0480CF076FE9E4981F89C010846F4
:1036800090F8980101287AD10846D0F8A001007D71
:1036900000F0010028B1B0EE000A084680ED4A0AA9
:1036A0000BE09448D0F8A001007D00F0020020B1AA
:1036B000B8EE000A8F4880ED4A0A8E48D0F8A00183
:1036C000B0F9020000EE100AB8EEC00ADFED9F0A62
:1036D00020EE200A874880ED4A0A9FED9D0A00F5FA
:1036E000907100F594700DF061FA8248D0ED480AAF
:1036F000944890ED000AB8EE400A20EE800AF1EE00
:103700000A0A60EE200A9FED901A80EE810A79483D
:10371000D0ED490A30EE200ADFED8E0A30EE200AA5
:1037200080ED490A8C4991ED000AF2EE040AB4EEEC
:10373000E00AF1EE10FA0FDD0146D1F8A011B1F95F
:103740000200002801DB014600E041420A2903DCB7
:1037500001208249087019E07F4991ED000AFAEED4
:10376000040AB4EEE00AF1EE10FA0FD26149D1F882
:10377000A011B1F90200002802DB014601E017E1C7
:1037800041420A2902DC022074490870734800781B
:1037900003280BD1574890ED580ADFED710A30EE3F
:1037A000200A80ED490A00206C4908705148D0F881
:1037B000A001B0F9040000EE100AB8EEC00ADFED77
:1037C000690A20EE200A4B48D0F8A001B0F90C009D
:1037D00000EE900AF8EEE00A9FED631A00EEC10ACF
:1037E000574880ED000A4348D0F8A001B0F9060020
:1037F00000EE100AB8EEC00ADFED5A0A20EE200AE9
:103800003C48D0F8A001B0F90E0000EE900AF8EEA6
:10381000E00A9FED561A00EE810A484880ED000A42
:1038200036484068007D00F02000E0B1334890F851
:103830005C0100F02000B0B92E4890ED530A10EE64
:10384000101A08460FF016FE41EC1A0B9FED480BBC
:1038500053EC102B0EF070FD41EC190B0EF00AFC2E
:103860002449C1F84C01234890ED530AD0F8A00137
:10387000B0F9000000EE900AF8EEE00A9FED3E1A63
:1038800000EE810A1B4880ED530ADFED3C0A9FEDF4
:10389000180A00F5A6700BF081FF164890ED540A47
:1038A000D0ED530A30EE600AB0EEC00ADFED340A04
:1038B000B4EEE00AF1EE10FA06DD0120134981F8BA
:1038C000AD00304981F8AD000A4890ED530A80ED13
:1038D000540A90F8B003012861D19FED2B0A0548E6
:1038E00080EDEB0A9FED040A80ED480A4EE00000EF
:1038F000B81E053E8C1B0020000000000C2D00208F
:10390000E82E0020A8200020881F0020DC1A0020BC
:10391000F020002018200020D01F00206020002070
:103920000000B4426C390108401F0020B80100209B
:10393000BA010020F8010020F4010020F00100206D
:10394000EC010020E801002000007A44A69B443BE3
:103950006F12833BACC5A736EC000020F0000020BE
:103960003D0AD73E82A8FB3717B7513852491DB9D7
:103970009A9999999999B93F844D78360AD7A33E77
:103980003480373A802100209A99993F1FED260A0A
:1039900080ED490A1FED280A80ED4B0A08E000205F
:1039A000474981F8B0031FED2C0A084680EDE90A6B
:1039B000444A454942480AF003FC4448444B414AC2
:1039C000414900903E4809F0ADFF3D4890F898010C
:1039D000012844D13C4890ED1E0AB0EE402ADFEDAC
:1039E0003D1A1FED3B1A5FED3C0A1FED3D0A082111
:1039F00039480BF039FE394800680BF0B5FF324802
:103A000090ED1D0AB0EE402ADFED321A1FED461A86
:103A10005FED470A1FED480A06212F480BF024FEF0
:103A20002E4800680BF0A0FF254890ED6D0ADFEDF1
:103A30002C0A80EE201ABDEEC10A10EE100A01B267
:103A40001F48A0F8AC110146B1F8AC11494208B2C8
:103A5000FFF7B6F8214800680BF086FF2EE0184803
:103A600090F8980150BB1FED5C2ADFED1A1A1FED8C
:103A70005E1A5FED5F0A1FED600A082116480BF021
:103A8000F3FD164800680BF06FFF1FED652ADFEDB0
:103A9000111A1FED671A5FED680A1FED690A06210A
:103AA0000D480BF0E1FD0D4800680BF05DFF0020B4
:103AB000FFF786F8094800680BF056FF00BF5EE587
:103AC0008C1B0020E82E0020DC1A0020881F00201C
:103AD00050020020CDCC4C3FE40B0020E801002038
:103AE0008ABACF391B48406800F0006080B31A489A
:103AF000406B00681949884205D94FF000601749AA
:103B00004C3908601CE01448406B00681149B8311A
:103B1000884205D94FF000601049503908600FE025
:103B20000D48406B00680B495831884204D94FF06A
:103B300000600849C86003E04FF0006005498860F4
:103B400005480068006840F400700349096808608F
:103B50007047000000600240880C0020586402405A
:103B600010B5024801F086F910BD0000D8120020FF
:103B700010B5024801F07EF910BD0000B811002018
:103B800010B5024801F076F910BD0000381300208E
:103B900010B5024801F06EF910BD000018120020A7
:103BA00001680A4BCAB2103AA3FB02321209084B51
:103BB0009B5CC365032A04D96FF30901091D816564
:103BC00002E06FF309018165806D7047ABAAAAAA74
:103BD000B43A0108014600208A6A8B69002B0FD095
:103BE000B3F5005F1DD08AB3012A30D0022A2ED04F
:103BF000032A04D1C96A11F0807F00D001207047E8
:103C00001AB1012A07D0022AF9D1C96A11F0807FBE
:103C1000F5D001207047C96AB1F1C07FFAD1012007
:103C200070475AB1012A0BD0022A07D0032AF7D1D4
:103C3000C96AB1F1C07FF3D10120704701207047FC
:103C4000C96A11F0807FFAD001207047FFE7012098
:103C5000704710B4D0F800C0DCF8004024F4802491
:103C6000CCF80040D0F800C0CCF804308368402B7A
:103C700005D0036899600068C26010BC7047036893
:103C80009A600068C16010BC7047000008B5084821
:103C900040680090074900980968884204D20648A5
:103CA0000068401C0449086002490098086008BD8B
:103CB000001000E058000020540000200C49486823
:103CC000F0EE400A00BF0A494968091A01EE101ACD
:103CD000F8EE411A074991ED001AB8EE411A20EEAC
:103CE000811AF4EEC11AF1EE10FAECD3704700001D
:103CF000001000E04800002010B52DED028B82B0CE
:103D000004460E484068019020680199081A00EEA8
:103D1000100AF8EE400A0A4890ED000AB8EE400A90
:103D200080EE801AB0EE418A01982060FFF7AEFF66
:103D3000B0EE480A02B0BDEC028B10BD001000E0EE
:103D40004800002010B52DED028B00F059F80F4807
:103D500090ED000AB8EE400A808800EE900AF8EE76
:103D6000600A9FED0B1A00EE810A0848C08800EE39
:103D7000900AF8EE600A9FED071A00EE810AB0EE95
:103D8000408AB0EE480ABDEC028B10BD4000002016
:103D90006F12833ABD3786351249096841F0807148
:103DA000104A11600021104A51601146096841F023
:103DB000010111600D4941430D4A11601146096826
:103DC0004FF47A72B1FBF2F10A4A116008490968AE
:103DD000064AB1FBF2F1084A11600021074A11605E
:103DE00070470000FCED00E0001000E040420F00D2
:103DF000480000204C00002050000020540000200B
:103E000038B5294840680090FFF740FF2748006810
:103E10004FF0FF31A0FB01310098181841F100016B
:103E2000234A03C2234800232149026803C9FDF73E
:103E30004BF8214A03C220480CC81E4800680024E1
:103E4000A2FB001503FB005002FB04021848D0E956
:103E50000030591A60EB0200184AC2E900101648F7
:103E6000006817490860174800231449026803C90D
:103E7000FDF72AF8124988800846808811490968A8
:103E800041430E48D0E90030591A60F100000E4A53
:103E9000C2E900100D4800230B49026803C9FDF771
:103EA00013F80749C88038BD001000E05400002016
:103EB0006000002048000020680000207000002002
:103EC000400000204C00002078000020500000201E
:103ED000704710B5012001F087F910BD10B508201A
:103EE00001F082F910BD10B5102001F07DF910BD70
:103EF00010B5202001F078F910BDD2ED020A92ED44
:103F0000021AB6EE000A00EEC10AD2ED030A92EDE3
:103F1000031A00EEC10AD0ED000A20EE200AD2ED0D
:103F2000010A92ED021A60EE810A92ED001AD2EDBA
:103F3000031A41EE210A90ED011A00EE810AD2ED3A
:103F4000010A92ED031A60EE810A92ED001AD2ED99
:103F5000021A41EE610A90ED021A00EE810AF0EEBB
:103F6000000A20EE200A81ED000A92ED010AD2ED4E
:103F7000020A20EE200AD2ED000A92ED031A00EEAA
:103F8000C10AD0ED000A60EE200A92ED011AD2EDCE
:103F9000011AB6EE000A01EE610AD2ED031A92EDA3
:103FA000032AB0EE401A01EEC21AD0ED011AB0EEAB
:103FB000600A01EE210AD2ED020A92ED031A60EEC8
:103FC000810A92ED001AD2ED011A41EE210A90ED1C
:103FD000021A00EE810AF0EE000A20EE200A81EDBE
:103FE000010A92ED010AD2ED030A20EE200AD2ED79
:103FF000000A92ED021A00EE810AD0ED000A20EECE
:10400000200AD2ED020A92ED031A60EE810A92EDC7
:10401000001AD2ED011A41EE610A90ED011A00EE8C
:10402000810A92ED011AD2ED011AF6EE000A41EE74
:10403000610A92ED021AD2ED021A41EE610A90ED88
:10404000021A00EE810AF0EE000A20EE200A81ED4D
:10405000020A7047704790F82020012A07D0022AF0
:1040600005D0416A41F48021416201207047006817
:104070004269114341610020704770B490F82040BC
:10408000D0F800C0DCF808C0012C08D0022C06D003
:10409000416A41F48021416270BC012070470CF0FC
:1040A00080640CF000652C4302D11CF0805F55D079
:1040B000CCF3016C012404FA0CF41C608B684FF4FF
:1040C000C0749BB1CD6804EB0C162B434D6843EADA
:1040D000C5030568AB514FF4C273066803EB0C13BC
:1040E0000D69F550097D012909D00DE00D88CB68D7
:1040F00004EB0C1643EA45530568AB51EBE7016846
:10410000CD5845F48075CD501179D379557941EA70
:10411000036193791B0443EA052319434FF4C675E1
:10412000036805EB0C1559511178D37841EA036106
:10413000937852781B0443EA022211434FF4C4736C
:10414000026803EB0C13D150016804EB0C100A5801
:1041500042F001020A5070BC00207047416A41F4ED
:104160000011416270BC01207047000090F82020CF
:10417000012A07D0022A05D0416A41F48021416218
:10418000012070474248D0F8002242F00102C0F8F6
:104190000022D0F8002222F47C52C0F80022D0F88D
:1041A00000224B6A42EA0322C0F800220A7D012362
:1041B00002F01F0203FA02F2D0F81C329343C0F857
:1041C0001C32CB69D3B9D0F80C329343C0F80C320F
:1041D000B1F80CC04B686CF31F43D1F814C000EB6E
:1041E000CC0CCCF84032B1F808C00B686CF31F431C
:1041F000D1F814C000EBCC0CCCF84432CB69012BC5
:104200001AD1D0F80C321343C0F80C32B1F800C008
:104210004B686CF31F43D1F814C000EBCC0CCCF806
:104220004032B1F808C0CB686CF31F43D1F814C01A
:1042300000EBCC0CCCF844328B697BB1D0F8043263
:104240001343C0F804320B6973B1D0F8143213432E
:10425000C0F81432096A01290CD010E0D0F80432F9
:104260009343C0F80432EEE7D0F814329343C0F819
:104270001432EFE7D0F81C121143C0F81C12D0F82A
:10428000001221F00101C0F8001200207047000068
:1042900000640040704730B490F820C0BCF1010FBA
:1042A00009D0BCF1020F06D0416A41F4802141627D
:1042B00030BC0120704739B1D0F800C0DCF810C024
:1042C0001CF0030F33D006E0D0F800C0DCF80CC0BF
:1042D0001CF0030F24D04FF4D87C04680CEB011CB5
:1042E00054F80C4004F0040494603CB3046854F89F
:1042F0000C40E4085460046854F80CC00CF0020C44
:10430000C2F80CC04FF4DA7C04680CEB011C54F8C2
:104310000C5005F00F05082D16D30824146118E081
:10432000416A41F40011416230BC01207047416A8A
:1043300041F40011416230BC01207047046854F818
:104340000C40640D1460D6E754F80C4004F00F04E0
:104350001461046854F80C40C4F3072494610468A1
:1043600054F80CC04FEA1C4CC2F814C04FF4DC7275
:10437000D0F800C002EB01125CF802C083F800C064
:10438000D0F800C05CF802C04FEA1C2C83F801C0D2
:10439000D0F800C05CF802C04FEA1C4C83F802C0A1
:1043A000D0F800C05CF80220120EDA704FF4DE7212
:1043B000D0F800C002EB01125CF802C083F804C020
:1043C000D0F800C05CF802C04FEA1C2C83F805C08E
:1043D000D0F800C05CF802C04FEA1C4C83F806C05D
:1043E000D0F800C05CF80220120EDA7139B1006812
:1043F000016941F02001016130BC00207047006874
:10440000C16841F02001C160F6E72DE9F05F054683
:10441000002428684669D0F804908768D0F80CA07A
:10442000D0F810B0D0F8188016F0010F54D017F063
:10443000010F17D00121816017F0020F03D0284629
:1044400000F082FC0EE017F0040F02D04FF400647D
:1044500008E017F0080F02D04FF4805402E028461D
:1044600000F071FC17F4807F19D029684FF4807038
:10447000886017F4007F03D0284600F067FC0EE048
:1044800017F4806F02D044F4005408E017F4006F72
:1044900002D044F4804402E0284600F056FC17F4B1
:1044A000803F19D029684FF48030886017F4003FAE
:1044B00003D0284600F04CFC0EE017F4802F02D009
:1044C00044F4004408E017F4002F02D044F4803490
:1044D00002E0284600F03BFC16F0080F07D01AF067
:1044E000100F04D044F4007429681020C86016F03E
:1044F000040F4FF0080707D01AF0080F04D02868FF
:10450000C760284600F000FA16F0020F07D02868AE
:10451000C06810F0030F02D0284600F0F7F916F03B
:10452000400F07D01BF0100F04D044F480642968BA
:104530001020086116F0200F07D01BF0080F04D0E0
:1045400028680761284600F0C9FB16F0100F07D055
:104550002868006910F0030F02D0284600F0BFFB66
:1045600016F4003F08D019F0100F05D0296810206C
:104570004860284600F0B4FB16F4803F07D019F0DD
:10458000080F04D028684760284600F0E2FB16F4C4
:10459000004F4AD019F0040F44D016F4807F04D0A5
:1045A00018F0010F01D044F0010416F4007F04D08C
:1045B00018F0020F01D044F0020416F4806F04D00A
:1045C00018F0040F01D044F0040416F4006F29D051
:1045D00018F0700F26D008F07000402815D006DCC7
:1045E000102809D020280AD0302816D10AE05028F7
:1045F0000ED0602811D10EE044F008040DE044F024
:1046000010040AE044F0200407E044F0400404E011
:1046100044F0800401E044F480742868816921F04A
:1046200070018161296804204860002C05D0686A07
:10463000204368622846FFF72DFEBDE8F09F70B565
:104640000446002C03D094F8200010B104E00120AF
:1046500070BD204600F0A8F82068016841F0010113
:10466000016000F0EBFE0546206840684FF005064B
:1046700010F0010F11D100F0E1FE401B0A2807D90C
:10468000606A40F40030606284F82060012070BDF0
:104690002068406810F0010FEDD02068016821F01B
:1046A0000201016000F0CAFE05462068406810F073
:1046B000020F11D000F0C2FE401B0A2807D9606A21
:1046C00040F40030606284F82060012070BD2068F2
:1046D000406810F0020FEDD1207E01283FD0206805
:1046E000016821F080010160607E01283DD02068D2
:1046F000016821F040010160A07E01283BD02068C4
:10470000016821F020010160E07E012839D0206895
:10471000016841F010010160207F012837D0206836
:10472000016821F008010160607F012835D0206810
:10473000016821F004010160E168A0686269084332
:104740002169114308436168491E08432168C86113
:1047500000206062012084F82000002070BD2068E5
:10476000016841F080010160BEE72068016841F006
:1047700040010160C0E72068016841F0200101604C
:10478000C2E72068016821F010010160C4E72068D9
:10479000016841F008010160C6E72068016841F046
:1047A00004010160C8E7000010B586B0044614217A
:1047B00001A8FCF798FD4E492068884241D14D4838
:1047C0000068401C4B4908600846006801280FD16A
:1047D00000BF002000904848006840F00070464943
:1047E00008600846006800F00070009000BF00BF3D
:1047F00000BF0020009040481038006840F00800DA
:104800003D49103908600846006800F00800009033
:1048100000BF00BF032001900220029000200390FF
:10482000032004900920059001A9344800F0E8FC19
:1048300000220621142001F053F8142001F042F860
:1048400054E02F492068884250D100BF00200090DA
:104850002948006840F080602749086008460068E1
:1048600000F08060009000BF00BF22480068401C3C
:10487000204908600846006801280FD100BF0020C9
:1048800000901D48006840F000701B490860084611
:10489000006800F00070009000BF00BF00BF002063
:1048A000009015481038006840F002001249103995
:1048B00008600846006800F00200009000BF00BFDA
:1048C00060200190022002900020039003200490B9
:1048D0000920059001A90B4800F092FC0022062156
:1048E000402000F0FDFF402000F0ECFF06B010BDBE
:1048F000006400402800002040380240000C0240C4
:1049000000680040000402407047000010B52DED23
:10491000048B8AB0044601AB03AA00212046FFF7AE
:10492000BAFCDE4884427DD140F201220398811A0C
:10493000904278D008DC032813D0042817D0092827
:104940001CD0152870D106E001296ED002296DD047
:104950000329F7D1E8E0082201A9D148FEF774F94C
:104960002DE1082201A9CF480AF0D2F927E1082257
:1049700001A9CC4838300AF0CBF920E1082201A97E
:10498000C848E0300AF0C4F9C64890ED3F0A10EE7E
:10499000101A08460EF06EFD41EC180B9FEDC20B8D
:1049A00053EC102B0EF02FF928D8BE4890ED3F0A9B
:1049B00010EE101A08460EF05DFD41EC180B9FED4D
:1049C000BC0B53EC102B0EF023F817D8B54890ED24
:1049D0003F0A10EE101A08460EF04CFD41EC190B80
:1049E0009FEDB10B53EC102B0EF042FA41EC180B7B
:1049F0000DF040FB0146AB48C0F8FC10A94890ED13
:104A00003F0AB5EEC00AF1EE10FA2DD890ED3F0A3C
:104A100010EE101A08460EF02DFD41EC180B9FED1C
:104A2000A60B04E0CCE07CE0C8E07BE07BE053EC4C
:104A3000102B0EF0E8F817D29A4890ED3F0A10EECE
:104A4000101A08460EF016FD41EC190B9FED960B5F
:104A500053EC102B0DF070FC41EC180B0DF00AFB21
:104A600001469048C0F8FC108E4890ED3F0A10EEC9
:104A7000101A08460EF0FEFC41EC180B9FED8E0B51
:104A800053EC102B0DF0C4FF28D8864890ED3F0A58
:104A900010EE101A08460EF0EDFC41EC180B9FEDDD
:104AA000880B53EC102B0EF0AEF817D87D4890ED24
:104AB0003F0A10EE101A08460EF0DCFC41EC190B10
:104AC0009FED7B0B53EC102B0DF036FC41EC180BDB
:104AD0000DF0D0FA01467348C0F8FC107148B0F8E8
:104AE000880301B26F48A0F8901390ED3F0ADFED04
:104AF000760A20EE200A10EE101A08460EF0BAFCD4
:104B000041EC190B9FED680B53EC102B0DF046FD9B
:104B100041EC180B0DF000FF81B26248A0F8881339
:104B20004DE000BF00BF00BF0398401E67490870FA
:104B300008460078C0EBC001654830F8210001B29A
:104B400062480078C0EBC002614800EB820001813E
:104B50009DF805009DF8041040EA01215B480078AB
:104B6000C0EBC0025A4820F822109DF807009DF8BB
:104B7000061040EA012001B254480078C0EBC002A0
:104B8000534800EB820041809DF809009DF8081011
:104B900040EA012001B24D480078C0EBC0024C4809
:104BA00000EB820081809DF80A1048480078C0EB35
:104BB000C002474800EB8200817100E000BF00BFE7
:104BC0004448844265D10398032807D004280CD0B8
:104BD000A0F2052080B1022859D10EE0082201A9D7
:104BE000304870300AF094F852E0082201A92D48AC
:104BF000A8300AF08DF84BE000BF0398001F36493B
:104C0000087008460078C0EBC001314830F8210038
:104C100001B231480078C0EBC0022D4800EB8200A1
:104C200001819DF805009DF8041040EA01212A4801
:104C30000078C0EBC002264820F822109DF807003B
:104C40009DF8061040EA012001B223480078C0EB2D
:104C5000C0021F4800EB820041809DF809009DF8CA
:104C6000081040EA012001B21B480078C0EBC002E6
:104C7000174800EB820081809DF80A1016480078E2
:104C8000C0EBC002124800EB8200817100E000BF5F
:104C900000BF0AB0BDEC048B10BD0000E40B002087
:104CA0007C1800208C1B0020000000000000194030
:104CB000000000000000294000000000000019C0B2
:104CC00000000000000029C0000000469000002005
:104CD000341D00200C0C002091000020704770470C
:104CE000704770B5044694F82000012805D0606A2A
:104CF00040F400206062012070BD022084F8200092
:104D00002068016821F00101016000F097FB054671
:104D10002068406810F0010F12D000F08FFB401B9C
:104D20000A2808D9606A40F400306062052084F8DF
:104D30002000012070BD2068406810F0010FECD108
:104D40000020606270BD70477047704770477047C1
:104D50007047704710B50446002C02D0607910B13E
:104D600006E0012010BD00202071204600F004F86C
:104D700001206071002010BD08B50A4A0168914207
:104D80000FD100BF002100910749096841F480510B
:104D9000054A11601146096801F48051009100BF75
:104DA00000BF08BD00300240303802402DE9F0411C
:104DB0000446A66D00F042FB054694F83500002736
:104DC000022806D08020606584F834700120BDE898
:104DD000F0812068016821F01601016020684169B6
:104DE00021F080014161206C08B9A06C20B12068DD
:104DF000016821F0080101602068016821F00101CB
:104E000001602068006810F0010F12D000F016FB5E
:104E1000401B052808D920206065032084F8350050
:104E200084F83470BDE8F0812068006810F0010F4C
:104E3000ECD194F85C003F2101FA00F0B060012051
:104E400084F8350084F834700020BDE8F08190F8D3
:104E50003510022903D080214165012070470521CA
:104E600080F835100068016821F001010160002020
:104E7000704700002DE9F84304464FF00008CDF8D4
:104E8000008076484FF416510068B0FBF1F7A56D2D
:104E90002E6894F85C00082101FA00F0304211D02D
:104EA0002068026812F0040F0CD0026822F004029D
:104EB000026094F85C0001FA00F0A860606D40F0B8
:104EC0000100606594F85C004FF0010909FA00F0F8
:104ED000304209D02168496911F0800F04D0A860E0
:104EE000606D40F00200606594F85C10042088401A
:104EF000304209D02168096811F0020F04D0A8607F
:104F0000606D40F00400606594F85C1010208840EB
:104F1000304224D02168096811F0080F1FD0A86022
:104F20002068016811F4802F0DD0006810F4002F64
:104F300004D0A16C99B12046884710E0216C71B172
:104F4000204688470BE0016811F4807F03D1016897
:104F500021F008010160216C09B12046884794F8CE
:104F60005C1020208840304251D02168096811F03F
:104F7000100F4CD0A86094F8350005280DD020689B
:104F8000016811F4802F32D0006810F4002F29D06E
:104F9000E16B59B32046884739E02068016821F069
:104FA000160101602068416921F080014161206C97
:104FB00008B9A06C20B12068016821F008010160E7
:104FC00094F85C003F2101FA00F0A86084F8359065
:104FD00084F83480216D00293ED001B02046BDE820
:104FE000F0430847616C09B1204688470FE001682B
:104FF00011F4807F07D1016821F01001016084F86D
:10500000359084F83480E16B09B120468847606DA3
:10501000002821D0606D10F0010F15D0052084F814
:1050200035002068016821F0010101600098401CF2
:105030000090B84204D82068006810F0010FF5D144
:1050400084F8359084F83480E16C002904D001B0F4
:105050002046BDE8F0430847BDE8F883340000204F
:105060002DE9F041044600F0E9F90546DCB10220E3
:1050700084F83500002684F834602068016821F047
:10508000010101602068006810F0010F13D000F0EA
:10509000D5F9401B052809D920206065032084F834
:1050A0003500BDE8F0810120BDE8F081206800688E
:1050B00010F0010FEBD121680868234A1040A36863
:1050C0006268D4F810C01A43E36843EA0C031A4339
:1050D00063691A43A3691A43E3691A43236A1A43AB
:1050E0001043626A042A03D1236BE26A1A43104315
:1050F00008602068406920F00701606A40EA010505
:10510000012704280ED1A06A0543E06A50B1204669
:10511000FEF760FD30B14020606584F835700120F5
:10512000BDE8F081206845612046FEF739FD94F81E
:105130005C103F2202FA01F18160666584F83570E7
:105140000020BDE8F08100003F8010F070B50446FB
:105150000025A66D94F8340001280DD0012084F8B4
:10516000340094F835C00020BCF1010F06D084F85B
:1051700034000225284670BD022070BD4FF0020C9D
:1051800084F835C060652046FEF763FD94F85C0046
:105190003F2101FA00F0B0602068016841F016017B
:1051A0000160206C20B12068016841F008010160B5
:1051B0002068016841F001010160DBE770B5044639
:1051C00000F03CF90546B4F1FF3F02D004480078F6
:1051D000044400F033F9401BA042FAD370BD000034
:1051E000B00400207047000010B504490A6802426C
:1051F00002D00860FFF7F6FF10BD0000143C01402C
:105200002DE9F84F0022DFF818A2DFF810924FF0D6
:10521000010E03274FF00F08AAF1040B0EFA02FC4F
:105220000B6803EA0C0363457DD10C7904F0030499
:10523000012C01D0022C14D18568540007FA04F621
:10524000B543CE6806FA04F42C438460446824EA2B
:105250000C0C0C79C4F30014944044EA0C0CC0F814
:1052600004C0D1F804C037EA0C0C0CD0C4684FEA73
:10527000420C07FA0CF5AC438D6805FA0CFC4CEABD
:10528000040CC0F80CC091F804C00CF0030CBCF185
:10529000020F12D14FEAD20C00EB8C04256A4FEAC0
:1052A000427C4FEADC6C08FA0CF6B5430E6906FA4C
:1052B0000CFC4CEA050CC4F820C004684FEA420C10
:1052C00007FA0CF5AC430D7905F0030505FA0CFC63
:1052D0004CEA040CC0F800C0D1F804C01CF4403FF4
:1052E0007DD0D9F800C04CF4804CC9F800C0D9F882
:1052F00000C00CF4804CCDF800C022F0030C0CF17F
:10530000804505F59835D5F808C89407240F08FAA4
:1053100004F62CEA0606A0F1804CBCF5003C64D0F3
:10532000A0F1804C00E05AE0BCF5013C60D0A0F157
:10533000804CBCF5023C5ED0A0F1804CBCF5033C37
:105340005CD0A0F1804CBCF5043C5AD0A0F1804C5C
:10535000BCF5053C58D0A0F1804CBCF5063C56D0BD
:10536000A0F1804CBCF5073C54D04FF0080C0CFA6F
:1053700004FC4CEA060CC5F808C8DAF800C02CEAB0
:10538000030C4C6814F4801F01D04CEA030CCAF8DB
:1053900000C0244CD4F800C02CEA030C4D6815F46E
:1053A000001F01D04CEA030CC4F800C0DBF800C0B9
:1053B0002CEA030C4C6814F4003F01D04CEA030CB7
:1053C000CBF800C0184CD4F800C02CEA030C4D6890
:1053D00015F4803F01D04CEA030CC4F800C0521C05
:1053E000102AFFF41BAFBDE8F88F4FF0000CBEE7AA
:1053F0004FF0010CBBE74FF0020CB8E74FF0030C85
:10540000B5E74FF0040CB2E74FF0050CAFE74FF0F3
:10541000060CACE74FF0070CA9E700004438024047
:10542000083C01400C3C0140003C0140002A01D0F6
:1054300081617047090481617047000001488068FC
:1054400070470000B004002070B50446002C04D062
:1054500094F83D00002510B106E0012070BD84F8ED
:105460003C50204600F0C6F8242084F83D00206817
:10547000016821F0010101602068016841F40041E8
:1054800001602068016821F40041016000F086FF9E
:10549000544B6168994203D85349884203D304E0CE
:1054A0005249884201D2012070BD5149B0FBF1F14F
:1054B0002268D2F804C02CF03F0C4CEA010CC2F870
:1054C00004C062689A4201D84A1C07E04FF4967201
:1054D00051434FF47A72B1FBF2F14A1C2168D1F8C2
:1054E00020C02CF03F0C42EA0C020A62616899422B
:1054F00010D84900401EB0FBF1F2521CC2F30B025F
:10550000042A01D2042026E0B0FBF1F0401CC0F3D5
:105510000B0020E0A268002A50D001EBC10303EB8E
:105520000113A0F1010CBCFBF3F35B1C43F48043BB
:105530001B051B0D4AD0002A4AD001EBC10202EB29
:105540000111401EB0FBF1F0401CC0F30B0040F411
:10555000804040F400402168CA6922F0FF0222F432
:105560004F421043C861216AE06901432068026824
:1055700022F0C00211430160E16820690143206804
:10558000826822F0FF0222F4034211438160A16984
:10559000606901432068C26822F0FF021143C160C4
:1055A0002068016841F0010101602564202084F831
:1055B0003D00256384F83E50002070BD01EB41039F
:1055C000A0F1010CBCFBF3F35B1CB1E70120C2E7C7
:1055D00001EB4101401EB0FBF1F0401CC0F30B0099
:1055E000B7E70000A086010080841E0000093D008E
:1055F00040420F0010B586B00446142101A8FBF705
:1056000072FE6F492068884230D100BF00200090B0
:105610006C48006840F002006A490860084600686B
:1056200000F00200009000BF00BF4FF440700190F6
:105630001220029001200390032004900420059082
:1056400001A96148FFF7DCFD00BF002000905D4824
:105650001030006840F400105A49103108600846C4
:10566000006800F40010009000BFA6E057492068D1
:10567000884250D100BF002000905248006840F09E
:105680002000504908600846006800F020000090A3
:1056900000BF00BF03200190122002900120039060
:1056A000032004900420059001A94948FFF7A8FDB4
:1056B00000BF0020009043481030006840F4800094
:1056C0004049103108600846006800F480000090EE
:1056D00000BF00BF3F48404908604FF0606048602D
:1056E00040213D4881600021C1604FF4806101612B
:1056F000002141618161C1614FF4003101620021EB
:105700004162FFF7ADFC08B1FEF7A4FC00BF3248D0
:105710006063846351E03149206888424DD100BF05
:10572000002000902748006840F0040025490860E8
:105730000846006800F00400009000BF00BF00BFF2
:10574000002000900846006840F00100086008460C
:10575000006800F00100009000BF00BF48150190F4
:105760001220029001200390032004900420059051
:1057700001A91B48FFF744FD4FF4807001901220EF
:10578000029001200390032004900420059001A9B9
:105790001448FFF735FD00BF002000900948103085
:1057A000006840F4000007491031086008460068AE
:1057B00000F40000009000BF00BF06B010BD000064
:1057C00000540040303802400004024000580040BD
:1057D00000140240B8600240300D0020005C004020
:1057E000000802400000024002488168027811442B
:1057F00081607047B004002010B50B48016841F487
:1058000000710160016841F480610160016841F448
:1058100080710160032000F097F80F2000F006F877
:1058200000F026F8002010BD003C024070B5044690
:105830000D4D4FF47A712878B1FBF0F00B490968EF
:10584000B1FBF0F001F058FB08B1012070BD102C45
:1058500007D200222146501E00F042F86C60002062
:1058600070BD012070BD0000B00400203400002095
:1058700008B500BF002000901148006840F4804047
:105880000F4908600846006800F48040009000BF9F
:1058900000BF00BF00200090081F006840F080504B
:1058A000091F08600846006800F08050009000BFA3
:1058B00000BF00220F21901E00F012F808BD00006A
:1058C0004438024000280ADB00F01F01012202FADE
:1058D00001F14009800000F1E020C0F8001170479C
:1058E00010B4184B1B68C3F30223C3F1070CBCF1BF
:1058F000040F01D94FF0040C1C1D072C01D200230A
:1059000000E0DB1E012404FA0CFCACF1010C0CEAF3
:105910000101994004FA03F35B1E1A401143002869
:1059200006DB00F1E020090180F8001410BC70478C
:1059300000F00F0000F1E020090180F8141D10BCF8
:10594000704700000CED00E000F00700064A116807
:105950004FF6FF03194041EA002040F0FD7040F08F
:1059600080601060704700000CED00E070477047E9
:1059700070477047704711F0800F01F00F0101EB85
:10598000C10100EB810101D0143101E001F5157175
:10599000006805F0F7BF2DE9F05F0446256828464A
:1059A00006F0A6F800287ED1206806F0CDF8002881
:1059B00079D0D5F80808C0F30D20C4F8D4042068C5
:1059C00006F0C2F810F0020F04D02068416901F01F
:1059D00002014161206806F0B7F810F0100F36D0D0
:1059E0002068816921F0100181612F6A07F00F00A2
:1059F00000EBC00004EB800000F51576C7F34340D0
:105A0000022802D0062812D01CE047F6F0700742A8
:105A100018D0C7F30A1217462846F16806F098F81E
:105A2000F0683844F0607069384470610AE0082218
:105A300004F29C41284606F08BF87069C7F30A11FE
:105A4000084470612068816941F01001816120681B
:105A500006F07AF810F4002F4FF0100B4FF0000A08
:105A60004FF0010967D00026206806F04CF8804608
:105A70005FEA08005FD018F0010F56D0F1B220683D
:105A800006F05AF8074617F0010F07D005EB46104D
:105A9000C0F8089B3146204604F0A0FC17F0080F20
:105AA0000AD0082000E01EE205EB4611C1F8080B01
:105AB0003146204604F06EFC17F0100F03D005EBC2
:105AC0004610C0F808BB17F0020F1DD0686910F02F
:105AD000800F05D0D5F8040840F48061C5F804189B
